{
  "contractName": "AccountingDBStructs",
  "abi": [
    {
      "anonymous": false,
      "inputs": [
        {
          "indexed": true,
          "name": "department",
          "type": "bytes32"
        }
      ],
      "name": "Activated",
      "type": "event"
    },
    {
      "anonymous": false,
      "inputs": [
        {
          "indexed": true,
          "name": "department",
          "type": "bytes32"
        }
      ],
      "name": "Deactivated",
      "type": "event"
    },
    {
      "anonymous": false,
      "inputs": [
        {
          "indexed": true,
          "name": "from",
          "type": "bytes32"
        },
        {
          "indexed": true,
          "name": "to",
          "type": "bytes32"
        },
        {
          "indexed": false,
          "name": "amount",
          "type": "uint80"
        }
      ],
      "name": "Forwarded",
      "type": "event"
    },
    {
      "anonymous": false,
      "inputs": [
        {
          "indexed": true,
          "name": "department",
          "type": "bytes32"
        },
        {
          "indexed": false,
          "name": "amount",
          "type": "uint80"
        }
      ],
      "name": "Cleared",
      "type": "event"
    },
    {
      "constant": false,
      "inputs": [
        {
          "name": "departmentIDs",
          "type": "bytes32[]"
        }
      ],
      "name": "activateDepartments",
      "outputs": [],
      "payable": false,
      "stateMutability": "nonpayable",
      "type": "function"
    },
    {
      "constant": false,
      "inputs": [
        {
          "name": "departmentID",
          "type": "bytes32"
        }
      ],
      "name": "activateDepartment",
      "outputs": [],
      "payable": false,
      "stateMutability": "nonpayable",
      "type": "function"
    },
    {
      "constant": false,
      "inputs": [
        {
          "name": "departmentID",
          "type": "bytes32"
        }
      ],
      "name": "deactivateDepartment",
      "outputs": [],
      "payable": false,
      "stateMutability": "nonpayable",
      "type": "function"
    },
    {
      "constant": false,
      "inputs": [
        {
          "name": "departmentID",
          "type": "bytes32"
        },
        {
          "name": "delegates",
          "type": "bytes32[]"
        }
      ],
      "name": "setDelegates",
      "outputs": [],
      "payable": false,
      "stateMutability": "nonpayable",
      "type": "function"
    },
    {
      "constant": false,
      "inputs": [
        {
          "name": "departmentID",
          "type": "bytes32"
        },
        {
          "name": "virtualmeters",
          "type": "bytes8[]"
        }
      ],
      "name": "setVirtualMeters",
      "outputs": [],
      "payable": false,
      "stateMutability": "nonpayable",
      "type": "function"
    },
    {
      "constant": false,
      "inputs": [
        {
          "name": "departmentID",
          "type": "bytes32"
        },
        {
          "name": "subdepartments",
          "type": "bytes32[]"
        }
      ],
      "name": "setSubDepartments",
      "outputs": [],
      "payable": false,
      "stateMutability": "nonpayable",
      "type": "function"
    },
    {
      "constant": false,
      "inputs": [
        {
          "name": "departmentID",
          "type": "bytes32"
        },
        {
          "name": "headcount",
          "type": "uint8"
        }
      ],
      "name": "setHeadcount",
      "outputs": [],
      "payable": false,
      "stateMutability": "nonpayable",
      "type": "function"
    },
    {
      "constant": true,
      "inputs": [
        {
          "name": "departmentID",
          "type": "bytes32"
        }
      ],
      "name": "getAccountingData",
      "outputs": [
        {
          "name": "",
          "type": "bytes32[]"
        },
        {
          "name": "",
          "type": "bytes32[]"
        },
        {
          "name": "",
          "type": "bytes8[]"
        }
      ],
      "payable": false,
      "stateMutability": "view",
      "type": "function"
    },
    {
      "constant": true,
      "inputs": [
        {
          "name": "departmentID",
          "type": "bytes32"
        }
      ],
      "name": "getDepartmentData",
      "outputs": [
        {
          "name": "",
          "type": "bool"
        },
        {
          "name": "",
          "type": "uint8"
        },
        {
          "name": "",
          "type": "uint80"
        },
        {
          "name": "",
          "type": "uint80"
        },
        {
          "name": "",
          "type": "uint80"
        }
      ],
      "payable": false,
      "stateMutability": "view",
      "type": "function"
    },
    {
      "constant": false,
      "inputs": [
        {
          "name": "from",
          "type": "bytes32"
        },
        {
          "name": "pct",
          "type": "uint8"
        }
      ],
      "name": "fixedSplit",
      "outputs": [],
      "payable": false,
      "stateMutability": "nonpayable",
      "type": "function"
    },
    {
      "constant": false,
      "inputs": [
        {
          "name": "from",
          "type": "bytes32"
        }
      ],
      "name": "headcountSplit",
      "outputs": [],
      "payable": false,
      "stateMutability": "nonpayable",
      "type": "function"
    },
    {
      "constant": false,
      "inputs": [
        {
          "name": "departmentID",
          "type": "bytes32"
        },
        {
          "name": "power",
          "type": "uint80"
        }
      ],
      "name": "billPower",
      "outputs": [],
      "payable": false,
      "stateMutability": "nonpayable",
      "type": "function"
    },
    {
      "constant": false,
      "inputs": [
        {
          "name": "departmentID",
          "type": "bytes32"
        },
        {
          "name": "cleared",
          "type": "uint80"
        }
      ],
      "name": "clearDepartment",
      "outputs": [],
      "payable": false,
      "stateMutability": "nonpayable",
      "type": "function"
    }
  ],
  "bytecode": "0x6060604052341561000f57600080fd5b6118188061001e6000396000f3006060604052600436106100c45763ffffffff7c01000000000000000000000000000000000000000000000000000000006000350416630a64fc5481146100c95780630b45f025146100e15780631fd71440146100ff5780633638a91514610121578063485892b414610137578063523972e5146101595780635338248e146101755780636c4d211c14610197578063961083ee146101ad578063a557d15f146101cf578063b4000aa5146101eb578063c4253af31461020d578063f06e141e14610301575b600080fd5b34156100d457600080fd5b6100df600435610359565b005b34156100ec57600080fd5b6100df60048035602481019101356107bc565b341561010a57600080fd5b6100df6004356001605060020a03602435166107f5565b341561012c57600080fd5b6100df600435610af0565b341561014257600080fd5b6100df600480359060248035908101910135610b3b565b341561016457600080fd5b6100df60043560ff60243516610b57565b341561018057600080fd5b6100df6004356001605060020a0360243516610b80565b34156101a257600080fd5b6100df600435610ebc565b34156101b857600080fd5b6100df600480359060248035908101910135610f2a565b34156101da57600080fd5b6100df60043560ff60243516610f46565b34156101f657600080fd5b6100df6004803590602480359081019101356111cc565b341561021857600080fd5b6102236004356111e8565b60405180806020018060200180602001848103845287818151815260200191508051906020019060200280838360005b8381101561026b578082015183820152602001610253565b50505050905001848103835286818151815260200191508051906020019060200280838360005b838110156102aa578082015183820152602001610292565b50505050905001848103825285818151815260200191508051906020019060200280838360005b838110156102e95780820151838201526020016102d1565b50505050905001965050505050505060405180910390f35b341561030c57600080fd5b610317600435611356565b604051941515855260ff90931660208501526001605060020a0391821660408086019190915290821660608501529116608083015260a0909101905180910390f35b610361611541565b610369611598565b600080600080600080600089600019166000191681526020019081526020016000206001018054806020026020016040519081016040528092919081815260200182805480156103d957602002820191906000526020600020905b815481526001909101906020018083116103c4575b50505060008b81526020819052604090205492985050506201000090046001605060020a0316945085519150600090505b818110156107a85760008087838151811061042157fe5b906020019060200201518152602081019190915260409081016000209061010090519081016040908152825460ff808216151584526101008204166020808501919091526001605060020a03620100008304811684860152606060020a83048116606086015260b060020a909204909116608084015260018401805493949360a08601939192909182820290910190519081016040528092919081815260200182805480156104f057602002820191906000526020600020905b815481526001909101906020018083116104db575b505050505081526020016002820180548060200260200160405190810160405280929190818152602001828054801561054957602002820191906000526020600020905b81548152600190910190602001808311610534575b50505050508152602001600382018054806020026020016040519081016040528092919081815260200182805480156105d157602002820191906000526020600020906000905b82829054906101000a900460c060020a02600160c060020a031916815260200190600801906020826007010492830192600103820291508084116105905790505b50505050508152505096508660200151925060646001605060020a0360ff85168702160493508387606001818151016001605060020a03169052508660008088848151811061061c57fe5b90602001906020020151815260208101919091526040016000208151815460ff19169015151781556020820151815460ff919091166101000261ff0019909116178155604082015181546001605060020a039190911662010000026bffffffffffffffffffff000019909116178155606082015181546001605060020a0391909116606060020a0275ffffffffffffffffffff00000000000000000000000019909116178155608082015181546001605060020a039190911660b060020a0275ffffffffffffffffffffffffffffffffffffffffffff90911617815560a0820151816001019080516107129291602001906115aa565b5060c08201518160020190805161072d9291602001906115aa565b5060e0820151816003019080516107489291602001906115f7565b5090505085818151811061075857fe5b90602001906020020151887fce1b74090ead426b9401cb90f749c2a37afeaa716eaefe6e95c0168e4321e592866040516001605060020a03909116815260200160405180910390a360010161040a565b6107b28886610b80565b5050505050505050565b8060005b818110156107ef576107e78484838181106107d757fe5b9050602002013560001916610af0565b6001016107c0565b50505050565b6107fd611541565b6000838152602081905260408082209061010090519081016040908152825460ff808216151584526101008204166020808501919091526001605060020a03620100008304811684860152606060020a83048116606086015260b060020a909204909116608084015260018401805493949360a08601939192909182820290910190519081016040528092919081815260200182805480156108bf57602002820191906000526020600020905b815481526001909101906020018083116108aa575b505050505081526020016002820180548060200260200160405190810160405280929190818152602001828054801561091857602002820191906000526020600020905b81548152600190910190602001808311610903575b50505050508152602001600382018054806020026020016040519081016040528092919081815260200182805480156109a057602002820191906000526020600020906000905b82829054906101000a900460c060020a02600160c060020a0319168152602001906008019060208260070104928301926001038202915080841161095f5790505b505050505081525050915081608001516001605060020a0381850316604080850191909152600086815260208190522090915082908151815460ff19169015151781556020820151815460ff919091166101000261ff0019909116178155604082015181546001605060020a039190911662010000026bffffffffffffffffffff000019909116178155606082015181546001605060020a0391909116606060020a0275ffffffffffffffffffff00000000000000000000000019909116178155608082015181546001605060020a039190911660b060020a0275ffffffffffffffffffffffffffffffffffffffffffff90911617815560a082015181600101908051610ab19291602001906115aa565b5060c082015181600201908051610acc9291602001906115aa565b5060e082015181600301908051610ae79291602001906115f7565b50505050505050565b60008181526020819052604090819020805460ff1916600117905581907fe1abfe35306def8dbc83e3cb0bc76ffd144cee4ab7707b4e888afd4d24c2d6ca905160405180910390a250565b60008381526020819052604090206107ef9060010183836116ab565b600091825260208290526040909120805460ff9092166101000261ff0019909216919091179055565b610b88611541565b600083815260208190526040908190209061010090519081016040908152825460ff808216151584526101008204166020808501919091526001605060020a03620100008304811684860152606060020a83048116606086015260b060020a909204909116608084015260018401805493949360a0860193919290918282029091019051908101604052809291908181526020018280548015610c4b57602002820191906000526020600020905b81548152600190910190602001808311610c36575b5050505050815260200160028201805480602002602001604051908101604052809291908181526020018280548015610ca457602002820191906000526020600020905b81548152600190910190602001808311610c8f575b5050505050815260200160038201805480602002602001604051908101604052809291908181526020018280548015610d2c57602002820191906000526020600020906000905b82829054906101000a900460c060020a02600160c060020a03191681526020019060080190602082600701049283019260010382029150808411610ceb5790505b50505050508152505090508181608001818151016001605060020a0316905250600060408281018290528482526020829052902081908151815460ff19169015151781556020820151815460ff919091166101000261ff0019909116178155604082015181546001605060020a039190911662010000026bffffffffffffffffffff000019909116178155606082015181546001605060020a0391909116606060020a0275ffffffffffffffffffff00000000000000000000000019909116178155608082015181546001605060020a039190911660b060020a0275ffffffffffffffffffffffffffffffffffffffffffff90911617815560a082015181600101908051610e3e9291602001906115aa565b5060c082015181600201908051610e599291602001906115aa565b5060e082015181600301908051610e749291602001906115f7565b508491507f57d45dd6919036d72b0e02cdbee1b980a46740044acee19ef62bdffecd16a41b9050836040516001605060020a03909116815260200160405180910390a2505050565b600081815260208190526040812081815590610edb60018301826116e8565b610ee96002830160006116e8565b610ef7600383016000611709565b508190507fe0c972902b8c453716a2a401ad60d945b4086632729c2e7d8c45843e386da56960405160405180910390a250565b60008381526020819052604090206107ef9060020183836116ab565b610f4e611598565b6000838152602081815260408083206001018054909290918282029091019051908101604052809291908181526020018280548015610fad57602002820191906000526020600020905b81548152600190910190602001808311610f98575b505050505091508151600214610fc257600080fd5b60008360ff1610158015610fda575060648360ff1611155b1515610fe557600080fd5b506000838152602081905260409020546001605060020a036201000090910481169060649060ff8516830216046000808460008151811061102257fe5b9060200190602002015181526020810191909152604001600090812080546001605060020a03606060020a80830482169095011690930275ffffffffffffffffffff000000000000000000000000199093169290921790915582908151811061108757fe5b90602001906020020151847fce1b74090ead426b9401cb90f749c2a37afeaa716eaefe6e95c0168e4321e59260646001605060020a0360ff8816860216046040516001605060020a03909116815260200160405180910390a360646001605060020a0360ff85830316830216046000808460018151811061110457fe5b906020019060200201518152602081019190915260400160002080546001605060020a03606060020a80830482169094011690920275ffffffffffffffffffff000000000000000000000000199092169190911790558160018151811061116757fe5b90602001906020020151847fce1b74090ead426b9401cb90f749c2a37afeaa716eaefe6e95c0168e4321e59260646001605060020a0360ff88830316860216046040516001605060020a03909116815260200160405180910390a36107ef8482610b80565b60008381526020819052604090206107ef90600301838361172e565b6111f0611598565b6111f8611598565b611200611598565b6000848152602081815260409182902060018101805490936002830193600390930192859291828202909101905190810160405280929190818152602001828054801561126d57602002820191906000526020600020905b81548152600190910190602001808311611258575b50505050509250818054806020026020016040519081016040528092919081815260200182805480156112c057602002820191906000526020600020905b815481526001909101906020018083116112ab575b505050505091508080548060200260200160405190810160405280929190818152602001828054801561134257602002820191906000526020600020906000905b82829054906101000a900460c060020a02600160c060020a031916815260200190600801906020826007010492830192600103820291508084116113015790505b505050505090509250925092509193909250565b6000806000806000611366611541565b600087815260208190526040908190209061010090519081016040908152825460ff808216151584526101008204166020808501919091526001605060020a03620100008304811684860152606060020a83048116606086015260b060020a909204909116608084015260018401805493949360a086019391929091828202909101905190810160405280929190818152602001828054801561142957602002820191906000526020600020905b81548152600190910190602001808311611414575b505050505081526020016002820180548060200260200160405190810160405280929190818152602001828054801561148257602002820191906000526020600020905b8154815260019091019060200180831161146d575b505050505081526020016003820180548060200260200160405190810160405280929190818152602001828054801561150a57602002820191906000526020600020906000905b82829054906101000a900460c060020a02600160c060020a031916815260200190600801906020826007010492830192600103820291508084116114c95790505b505050505081525050905080600001518160200151826040015183606001518460800151939b929a50909850965090945092505050565b610100604051908101604090815260008083526020830181905290820181905260608201819052608082015260a08101611579611598565b8152602001611586611598565b8152602001611593611598565b905290565b60206040519081016040526000815290565b8280548282559060005260206000209081019282156115e7579160200282015b828111156115e757825182556020909201916001909101906115ca565b506115f39291506117aa565b5090565b8280548282559060005260206000209060030160049004810192821561169f5791602002820160005b8382111561166957835183826101000a81548167ffffffffffffffff021916908360c060020a900402179055509260200192600801602081600701049283019260010302611620565b801561169d5782816101000a81549067ffffffffffffffff0219169055600801602081600701049283019260010302611669565b505b506115f39291506117c7565b8280548282559060005260206000209081019282156115e7579160200282015b828111156115e757823582556020909201916001909101906116cb565b508054600082559060005260206000209081019061170691906117aa565b50565b50805460008255600301600490049060005260206000209081019061170691906117aa565b8280548282559060005260206000209060030160049004810192821561169f5791602002820160005b83821115611669578335600160c060020a03191683826101000a81548167ffffffffffffffff021916908360c060020a900402179055509260200192600801602081600701049283019260010302611757565b6117c491905b808211156115f357600081556001016117b0565b90565b6117c491905b808211156115f357805467ffffffffffffffff191681556001016117cd5600a165627a7a723058207c7c5f91f58a154660b4d684c91d069ec236b70af6a208698673f759b9ed42a60029",
  "source": "pragma solidity ^0.4.21;\n\n/**\n * @title AccountingDb\n * @dev Handles all accounting logic for departments\n */\n\ncontract AccountingDBStructs  {\n\n    /* Events */\n    event Activated(bytes32 indexed department);\n    event Deactivated(bytes32 indexed department);\n    event Forwarded(bytes32 indexed from, bytes32 indexed to, uint80 amount);\n    event Cleared(bytes32 indexed department, uint80 amount);\n\n    /* Storage */\n    struct Department {\n        bool active;\n        uint8 headcount;\n        uint80 power;\n        uint80 delegatedPower;\n        uint80 clearedPower;\n        bytes32[] delegates; // Departments to delegate to\n        bytes32[] subdepartments; // Departments to get readings from, used for top level departments such as HREG or for Admin_HRE\n        bytes8[] virtualmeters; // IDs of virtual meters { VM01- VM44} Should be bytes8 because that's how we define it in MeterDB\n    }\n\n    mapping (bytes32 => Department) departments; // arrays of delegate/departments/virtual meters\n\n\n    /* Public functions */\n\n    /// @dev Called by an operator to activate multiple departments in storage\n    /// @param departmentIDs array of Department IDs\n    function activateDepartments(bytes32[] departmentIDs) external {\n        uint length = departmentIDs.length;\n\n        for (uint i=0; i<length; i++) {\n            activateDepartment(departmentIDs[i]);\n        }\n\n    }\n\n    /// @dev Called by an operator to activate a department in storage\n    /// @param departmentID the ID of the department\n    function activateDepartment(bytes32 departmentID) public { \n        departments[departmentID].active = true;\n        emit Activated(departmentID);\n    }\n\n    /// @dev Called by an operator to deactivate a department in storage\n    /// @param departmentID the ID of the department\n    function deactivateDepartment(bytes32 departmentID) external  { \n        delete departments[departmentID];\n\n        emit Deactivated(departmentID);\n    }\n\n    /// @dev Called by an operator to set the delegates for a department\n    /// @param departmentID the ID of the department\n    /// @param delegates array with the IDs of the delegates\n    function setDelegates(bytes32 departmentID, bytes32[] delegates) external  {\n        departments[departmentID].delegates = delegates;\n    }\n\n    /// @dev Called by an operator to set the virtualmeters for a department\n    /// @param departmentID the ID of the department\n    /// @param virtualmeters array with the IDs of the virtualmeters\n    function setVirtualMeters(bytes32 departmentID, bytes8[] virtualmeters) external  {\n        departments[departmentID].virtualmeters = virtualmeters;\n    }\n\n    /// @dev Called by an operator to set the subdepartments for a department\n    /// @param departmentID the ID of the department\n    /// @param subdepartments array with the IDs of the subdepartments\n    function setSubDepartments(bytes32 departmentID, bytes32[] subdepartments) external  {\n        departments[departmentID].subdepartments = subdepartments;\n    }\n\n    /// @dev Called by an operator to set the headcount for a department\n    /// @param departmentID the ID of the department\n    /// @param headcount the headcount PERCENTAGE of that department\n    function setHeadcount(bytes32 departmentID, uint8 headcount) external  {\n        departments[departmentID].headcount = headcount;\n    }\n\n\n    /// @dev Given a departmentID fetch the delegates/subdepartments/virtualmeters\n    /// @param departmentID the ID of the department\n    function getAccountingData(bytes32 departmentID) external view returns (bytes32[], bytes32[], bytes8[]) {\n        return (\n           departments[departmentID].delegates,\n           departments[departmentID].subdepartments,\n           departments[departmentID].virtualmeters\n        );\n    }\n\n    /// @dev Given a departmentID fetch if the department is active, its ehadcount and its power, delegated power and cleared power\n    /// @param departmentID the ID of the department\n    function getDepartmentData(bytes32 departmentID) \n    external \n    view \n    returns (bool, uint8, uint80, uint80, uint80) \n    {\n\n        Department memory department = departments[departmentID];\n        return (\n            department.active,\n            department.headcount,\n            department.power,\n            department.delegatedPower,\n            department.clearedPower\n        );\n    }\n\n    /// @dev Called by an accountant to forward the consumption of a department to two other departments, split in X% and (100-X)%\n    /// @param from the ID of the sending department\n    /// @param pct the *percentage* that will get forwarded to the first delegate. The rest gets sent to the second delegate.\n    function fixedSplit(bytes32 from, uint8 pct) external  {\n        bytes32[] memory to = departments[from].delegates; // the receiving departments are the delegates\n        require(to.length == 2);\n        require(pct >=0 && pct <= 100);\n\n        uint80 power_for_delegation = departments[from].power;\n\n        // delegate to the 2 receiving departments\n        departments[to[0]].delegatedPower += power_for_delegation * pct / 100;\n\n        emit Forwarded(\n            from, \n            to[0], \n            power_for_delegation * pct / 100\n        );\n\n        departments[to[1]].delegatedPower += power_for_delegation * (100-pct) / 100;\n\n        emit Forwarded(\n            from, \n            to[1], \n            power_for_delegation * (100-pct) / 100\n        );\n\n        // Clear\n        clearDepartment(from, power_for_delegation);\n    }\n\n\n\n    /// @dev Called by an accountant to forward the consumption of a department based on its delegates' headcounts. \n    /// @param from the ID of the sending department\n    function headcountSplit(bytes32 from) external  {\n\n        Department memory receiver;\n        bytes32[] memory to = departments[from].delegates;\n\n        uint80 power_for_delegation = departments[from].power;\n        uint80 power;\n        uint8 headcount;\n        uint length = to.length;\n\n\n        for (uint i = 0 ; i < length ; i++) {\n            receiver = departments[to[i]]; // \n            headcount = receiver.headcount;\n\n            power = power_for_delegation * headcount / 100;\n            receiver.delegatedPower += power;\n\n            // and store it back\n            departments[to[i]] = receiver;\n\n            emit Forwarded(from, to[i], power);\n        }\n\n        clearDepartment(from, power_for_delegation);\n    }\n\n    /// @dev Called by an accountant to bill a department. If a department has been cleared int he past, the cleared amount is not billed again to prevent double-billing\n    /// @param departmentID the department to be billed\n    /// @param power the power consumption to be billed\n    function billPower(bytes32 departmentID, uint80 power) external {\n        Department memory department = departments[departmentID];\n        uint80 cleared = department.clearedPower;\n\n        // Since meters always ping their latest value\n        // only bill power that has not been cleared yet\n        // by definition cleared < power\n        department.power = power - cleared;\n        departments[departmentID] = department;\n    }\n\n    /// @dev Called by an accountant to clear a department. It increases the amount of power that has been cleared, and resets the deparment's power.\n    /// @param departmentID the department to be cleared\n    /// @param cleared the power consumption to be cleared\n    function clearDepartment(bytes32 departmentID, uint80 cleared) public  { // an accountant can call that too\n        Department memory department = departments[departmentID];\n        department.clearedPower += cleared;\n        department.power = 0;\n\n        departments[departmentID] = department;\n\n        emit Cleared(departmentID, cleared);\n    }\n}\n",
  "sourcePath": "/home/opsec/Diploma/metering-and-billing-of-energy-with-respect-to-scalability-and-security/smartcontracts-gascomparison/contracts/core/AccountingDBStructs.sol",
  "compiler": {
    "name": "solc",
    "version": "0.4.21+commit.dfe3193c.Emscripten.clang"
  },
  "schemaVersion": "2.0.0",
  "updatedAt": "2018-04-29T13:39:30.239Z"
}