{
  "contractName": "AccountingDBLib",
  "abi": [
    {
      "anonymous": false,
      "inputs": [
        {
          "indexed": true,
          "name": "department",
          "type": "bytes32"
        }
      ],
      "name": "Activated",
      "type": "event"
    },
    {
      "anonymous": false,
      "inputs": [
        {
          "indexed": true,
          "name": "department",
          "type": "bytes32"
        }
      ],
      "name": "Deactivated",
      "type": "event"
    },
    {
      "anonymous": false,
      "inputs": [
        {
          "indexed": true,
          "name": "from",
          "type": "bytes32"
        },
        {
          "indexed": true,
          "name": "to",
          "type": "bytes32"
        },
        {
          "indexed": false,
          "name": "amount",
          "type": "uint80"
        }
      ],
      "name": "Forwarded",
      "type": "event"
    },
    {
      "anonymous": false,
      "inputs": [
        {
          "indexed": true,
          "name": "department",
          "type": "bytes32"
        },
        {
          "indexed": false,
          "name": "amount",
          "type": "uint80"
        }
      ],
      "name": "Cleared",
      "type": "event"
    },
    {
      "constant": false,
      "inputs": [
        {
          "name": "departmentIDs",
          "type": "bytes32[]"
        }
      ],
      "name": "activateDepartments",
      "outputs": [],
      "payable": false,
      "stateMutability": "nonpayable",
      "type": "function"
    },
    {
      "constant": false,
      "inputs": [
        {
          "name": "departmentID",
          "type": "bytes32"
        }
      ],
      "name": "activateDepartment",
      "outputs": [],
      "payable": false,
      "stateMutability": "nonpayable",
      "type": "function"
    },
    {
      "constant": false,
      "inputs": [
        {
          "name": "departmentID",
          "type": "bytes32"
        }
      ],
      "name": "deactivateDepartment",
      "outputs": [],
      "payable": false,
      "stateMutability": "nonpayable",
      "type": "function"
    },
    {
      "constant": false,
      "inputs": [
        {
          "name": "departmentID",
          "type": "bytes32"
        },
        {
          "name": "delegates",
          "type": "bytes32[]"
        }
      ],
      "name": "setDelegates",
      "outputs": [],
      "payable": false,
      "stateMutability": "nonpayable",
      "type": "function"
    },
    {
      "constant": false,
      "inputs": [
        {
          "name": "departmentID",
          "type": "bytes32"
        },
        {
          "name": "virtualmeters",
          "type": "bytes8[]"
        }
      ],
      "name": "setVirtualMeters",
      "outputs": [],
      "payable": false,
      "stateMutability": "nonpayable",
      "type": "function"
    },
    {
      "constant": false,
      "inputs": [
        {
          "name": "departmentID",
          "type": "bytes32"
        },
        {
          "name": "subdepartments",
          "type": "bytes32[]"
        }
      ],
      "name": "setSubDepartments",
      "outputs": [],
      "payable": false,
      "stateMutability": "nonpayable",
      "type": "function"
    },
    {
      "constant": false,
      "inputs": [
        {
          "name": "departmentID",
          "type": "bytes32"
        },
        {
          "name": "headcount",
          "type": "uint8"
        }
      ],
      "name": "setHeadcount",
      "outputs": [],
      "payable": false,
      "stateMutability": "nonpayable",
      "type": "function"
    },
    {
      "constant": true,
      "inputs": [
        {
          "name": "departmentID",
          "type": "bytes32"
        }
      ],
      "name": "getAccountingData",
      "outputs": [
        {
          "name": "",
          "type": "bytes32[]"
        },
        {
          "name": "",
          "type": "bytes32[]"
        },
        {
          "name": "",
          "type": "bytes8[]"
        }
      ],
      "payable": false,
      "stateMutability": "view",
      "type": "function"
    },
    {
      "constant": true,
      "inputs": [
        {
          "name": "departmentID",
          "type": "bytes32"
        }
      ],
      "name": "getDepartmentData",
      "outputs": [
        {
          "name": "",
          "type": "bool"
        },
        {
          "name": "",
          "type": "uint8"
        },
        {
          "name": "",
          "type": "uint80"
        },
        {
          "name": "",
          "type": "uint80"
        },
        {
          "name": "",
          "type": "uint80"
        }
      ],
      "payable": false,
      "stateMutability": "view",
      "type": "function"
    },
    {
      "constant": false,
      "inputs": [
        {
          "name": "from",
          "type": "bytes32"
        },
        {
          "name": "pct",
          "type": "uint8"
        }
      ],
      "name": "fixedSplit",
      "outputs": [],
      "payable": false,
      "stateMutability": "nonpayable",
      "type": "function"
    },
    {
      "constant": false,
      "inputs": [
        {
          "name": "from",
          "type": "bytes32"
        }
      ],
      "name": "headcountSplit",
      "outputs": [],
      "payable": false,
      "stateMutability": "nonpayable",
      "type": "function"
    },
    {
      "constant": false,
      "inputs": [
        {
          "name": "departmentID",
          "type": "bytes32"
        },
        {
          "name": "power",
          "type": "uint80"
        }
      ],
      "name": "billPower",
      "outputs": [],
      "payable": false,
      "stateMutability": "nonpayable",
      "type": "function"
    },
    {
      "constant": false,
      "inputs": [
        {
          "name": "departmentID",
          "type": "bytes32"
        },
        {
          "name": "cleared",
          "type": "uint80"
        }
      ],
      "name": "clearDepartment",
      "outputs": [],
      "payable": false,
      "stateMutability": "nonpayable",
      "type": "function"
    }
  ],
  "bytecode": "0x6060604052341561000f57600080fd5b610f4c8061001e6000396000f3006060604052600436106100c45763ffffffff7c01000000000000000000000000000000000000000000000000000000006000350416630a64fc5481146100c95780630b45f025146100e15780631fd71440146100ff5780633638a91514610124578063485892b41461013a578063523972e51461015c5780635338248e146101785780636c4d211c1461019d578063961083ee146101b3578063a557d15f146101d5578063b4000aa5146101f1578063c4253af314610213578063f06e141e14610307575b600080fd5b34156100d457600080fd5b6100df600435610362565b005b34156100ec57600080fd5b6100df6004803560248101910135610505565b341561010a57600080fd5b6100df60043569ffffffffffffffffffff6024351661053e565b341561012f57600080fd5b6100df600435610583565b341561014557600080fd5b6100df6004803590602480359081019101356105df565b341561016757600080fd5b6100df60043560ff602435166105f8565b341561018357600080fd5b6100df60043569ffffffffffffffffffff6024351661062d565b34156101a857600080fd5b6100df6004356106bc565b34156101be57600080fd5b6100df600480359060248035908101910135610730565b34156101e057600080fd5b6100df60043560ff6024351661074c565b34156101fc57600080fd5b6100df6004803590602480359081019101356109bd565b341561021e57600080fd5b6102296004356109d9565b60405180806020018060200180602001848103845287818151815260200191508051906020019060200280838360005b83811015610271578082015183820152602001610259565b50505050905001848103835286818151815260200191508051906020019060200280838360005b838110156102b0578082015183820152602001610298565b50505050905001848103825285818151815260200191508051906020019060200280838360005b838110156102ef5780820151838201526020016102d7565b50505050905001965050505050505060405180910390f35b341561031257600080fd5b61031d600435610b67565b604051941515855260ff909316602085015269ffffffffffffffffffff91821660408086019190915290821660608501529116608083015260a0909101905180910390f35b600061036c610d55565b600083815260208181526040808320805484938493849384939092909182820290910190519081016040528092919081815260200182805480156103d057602002820191906000526020600020905b815481526001909101906020018083116103bb575b50505060008b8152600160205260409020549298506103f2929150610bbe9050565b945085519150600090505b818110156104f1576001600087838151811061041557fe5b906020019060200201518152602081019190915260400160002054965061043b87610bdd565b9250606469ffffffffffffffffffff60ff8516870216049350610464878563ffffffff610bec16565b9650866001600088848151811061047757fe5b90602001906020020151815260208101919091526040016000205585818151811061049e57fe5b90602001906020020151887fce1b74090ead426b9401cb90f749c2a37afeaa716eaefe6e95c0168e4321e5928660405169ffffffffffffffffffff909116815260200160405180910390a36001016103fd565b6104fb888661062d565b5050505050505050565b8060005b818110156105385761053084848381811061052057fe5b9050602002013560001916610583565b600101610509565b50505050565b6000828152600160205260408120549061055782610c32565b905061056b8282850363ffffffff610c5f16565b60009485526001602052604090942093909355505050565b60008181526001602052604090205461059b90610c8c565b600082815260016020526040908190209190915581907fe1abfe35306def8dbc83e3cb0bc76ffd144cee4ab7707b4e888afd4d24c2d6ca905160405180910390a250565b6000838152602081905260409020610538908383610d67565b600082815260016020526040902054610617908263ffffffff610c9c16565b6000928352600160205260409092209190915550565b60008281526001602052604090205461064c818363ffffffff610caf16565b905061065f81600063ffffffff610c5f16565b6000848152600160205260409081902082905590915083907f57d45dd6919036d72b0e02cdbee1b980a46740044acee19ef62bdffecd16a41b9084905169ffffffffffffffffffff909116815260200160405180910390a2505050565b6000818152600160209081526040808320839055908290528120906106e18282610db4565b6106ef600183016000610db4565b6106fd600283016000610dd5565b508190507fe0c972902b8c453716a2a401ad60d945b4086632729c2e7d8c45843e386da56960405160405180910390a250565b6000838152602081905260409020610538906001018383610d67565b610754610d55565b60008381526020818152604080832080549092909182820290910190519081016040528092919081815260200182805480156107b057602002820191906000526020600020905b8154815260019091019060200180831161079b575b5050505050915081516002146107c557600080fd5b60008360ff16101580156107dd575060648360ff1611155b15156107e857600080fd5b60008481526001602052604090205461080090610bbe565b9050610852606469ffffffffffffffffffff60ff861684021604600160008560008151811061082b57fe5b9060200190602002015181526020810191909152604001600020549063ffffffff610bec16565b600160008460008151811061086357fe5b906020019060200201518152602081019190915260400160009081209190915582908151811061088f57fe5b90602001906020020151847fce1b74090ead426b9401cb90f749c2a37afeaa716eaefe6e95c0168e4321e592606469ffffffffffffffffffff60ff88168602160460405169ffffffffffffffffffff909116815260200160405180910390a3610919606469ffffffffffffffffffff60ff8683031684021604600160008560018151811061082b57fe5b600160008460018151811061092a57fe5b9060200190602002015181526020810191909152604001600020558160018151811061095257fe5b90602001906020020151847fce1b74090ead426b9401cb90f749c2a37afeaa716eaefe6e95c0168e4321e592606469ffffffffffffffffffff60ff888303168602160460405169ffffffffffffffffffff909116815260200160405180910390a3610538848261062d565b6000838152602081905260409020610538906002018383610dfa565b6109e1610d55565b6109e9610d55565b6109f1610d55565b60008481526020818152604091829020805490926001840192600285019285929091828102019051908101604052809291908181526020018280548015610a5857602002820191906000526020600020905b81548152600190910190602001808311610a43575b5050505050925081805480602002602001604051908101604052809291908181526020018280548015610aab57602002820191906000526020600020905b81548152600190910190602001808311610a96575b5050505050915080805480602002602001604051908101604052809291908181526020018280548015610b5357602002820191906000526020600020906000905b82829054906101000a900478010000000000000000000000000000000000000000000000000277ffffffffffffffffffffffffffffffffffffffffffffffff191681526020019060080190602082600701049283019260010382029150808411610aec5790505b505050505090509250925092509193909250565b6000818152600160205260408120548190819081908190610b8781610cf7565b610b9082610bdd565b610b9983610bbe565b610ba284610d0e565b610bab85610c32565b939b929a50909850965090945092505050565b6000610bd78269ffffffffffffffffffff610100610d2d565b92915050565b6000610bd782607f6002610d2d565b600080610bf884610d0e565b9050610c2a8469ffffffffffffffffffff6b01000000000000000000000086850169ffffffffffffffffffff16610d46565b949350505050565b6000610bd78269ffffffffffffffffffff7501000000000000000000000000000000000000000000610d2d565b6000610c858369ffffffffffffffffffff6101008569ffffffffffffffffffff16610d46565b9392505050565b6000610bd7826001806001610d46565b6000610c8583607f60028560ff16610d46565b600080610cbb84610c32565b9050610c2a8469ffffffffffffffffffff750100000000000000000000000000000000000000000086850169ffffffffffffffffffff16610d46565b6000610d0582600180610d2d565b60011492915050565b6000610bd78269ffffffffffffffffffff6b0100000000000000000000005b60008184811515610d3a57fe5b04831690509392505050565b82168102910219919091161790565b60206040519081016040526000815290565b828054828255906000526020600020908101928215610da4579160200282015b82811115610da45782358255602090920191600190910190610d87565b50610db0929150610ede565b5090565b5080546000825590600052602060002090810190610dd29190610ede565b50565b508054600082556003016004900490600052602060002090810190610dd29190610ede565b82805482825590600052602060002090600301600490048101928215610ed25791602002820160005b83821115610e9c57833577ffffffffffffffffffffffffffffffffffffffffffffffff191683826101000a81548167ffffffffffffffff02191690837801000000000000000000000000000000000000000000000000900402179055509260200192600801602081600701049283019260010302610e23565b8015610ed05782816101000a81549067ffffffffffffffff0219169055600801602081600701049283019260010302610e9c565b505b50610db0929150610efb565b610ef891905b80821115610db05760008155600101610ee4565b90565b610ef891905b80821115610db057805467ffffffffffffffff19168155600101610f015600a165627a7a72305820d98058d9f0bcb719da7a639286cc5ffbb67923cfd2248c4755d9b5565ef50e6d0029",
  "source": "pragma solidity ^0.4.21;\n\nimport '../libs/Department.sol';\n\n/**\n * @title AccountingDb\n * @dev Handles all accounting logic for departments\n */\n\ncontract AccountingDBLib {\n\n    using Department for bytes32;\n\n    /* Events */\n    event Activated(bytes32 indexed department);\n    event Deactivated(bytes32 indexed department);\n    event Forwarded(bytes32 indexed from, bytes32 indexed to, uint80 amount);\n    event Cleared(bytes32 indexed department, uint80 amount);\n\n    /* Storage */\n    struct Accounting {\n        bytes32[] delegates; // Departments to delegate to\n        bytes32[] subdepartments; // Departments to get readings from, used for top level departments such as HREG or for Admin_HRE\n        bytes8[] virtualmeters; // IDs of virtual meters { VM01- VM44} Should be bytes8 because that's how we define it in MeterDB\n    }\n\n    mapping (bytes32 => Accounting) accounting; // arrays of delegate/departments/virtual meters\n    mapping (bytes32 => bytes32) departments; // power - headcount\n\n\n    /* Public functions */\n\n    /// @dev Called by an operator to activate multiple departments in storage\n    /// @param departmentIDs array of Department IDs\n    function activateDepartments(bytes32[] departmentIDs) external {\n        uint length = departmentIDs.length;\n\n        for (uint i=0; i<length; i++) {\n            activateDepartment(departmentIDs[i]);\n        }\n\n    }\n\n    /// @dev Called by an operator to activate a department in storage\n    /// @param departmentID the ID of the department\n    function activateDepartment(bytes32 departmentID) public { \n        departments[departmentID] = departments[departmentID].activateDepartment();\n\n        emit Activated(departmentID);\n    }\n\n    /// @dev Called by an operator to deactivate a department in storage\n    /// @param departmentID the ID of the department\n    function deactivateDepartment(bytes32 departmentID) external  { \n        delete departments[departmentID];\n        delete accounting[departmentID];\n\n        emit Deactivated(departmentID);\n    }\n\n    /// @dev Called by an operator to set the delegates for a department\n    /// @param departmentID the ID of the department\n    /// @param delegates array with the IDs of the delegates\n    function setDelegates(bytes32 departmentID, bytes32[] delegates) external  {\n        accounting[departmentID].delegates = delegates;\n    }\n\n    /// @dev Called by an operator to set the virtualmeters for a department\n    /// @param departmentID the ID of the department\n    /// @param virtualmeters array with the IDs of the virtualmeters\n    function setVirtualMeters(bytes32 departmentID, bytes8[] virtualmeters) external  {\n        accounting[departmentID].virtualmeters = virtualmeters;\n    }\n\n    /// @dev Called by an operator to set the subdepartments for a department\n    /// @param departmentID the ID of the department\n    /// @param subdepartments array with the IDs of the subdepartments\n    function setSubDepartments(bytes32 departmentID, bytes32[] subdepartments) external  {\n        accounting[departmentID].subdepartments = subdepartments;\n    }\n\n    /// @dev Called by an operator to set the headcount for a department\n    /// @param departmentID the ID of the department\n    /// @param headcount the headcount PERCENTAGE of that department\n    function setHeadcount(bytes32 departmentID, uint8 headcount) external  {\n        departments[departmentID] = departments[departmentID].setHeadcount(headcount);\n    }\n\n\n    /// @dev Given a departmentID fetch the delegates/subdepartments/virtualmeters\n    /// @param departmentID the ID of the department\n    function getAccountingData(bytes32 departmentID) external view returns (bytes32[], bytes32[], bytes8[]) {\n        return (\n            accounting[departmentID].delegates,\n            accounting[departmentID].subdepartments,\n            accounting[departmentID].virtualmeters\n        );\n    }\n\n    /// @dev Given a departmentID fetch if the department is active, its ehadcount and its power, delegated power and cleared power\n    /// @param departmentID the ID of the department\n    function getDepartmentData(bytes32 departmentID) \n    external \n    view \n    returns (bool, uint8, uint80, uint80, uint80) \n    {\n\n        bytes32 department = departments[departmentID];\n        return (\n            department.isActive(),\n            department.getHeadcount(),\n            department.getPower(),\n            department.getDelegatedPower(),\n            department.getClearedPower()\n        );\n    }\n\n    /// @dev Called by an accountant to forward the consumption of a department to two other departments, split in X% and (100-X)%\n    /// @param from the ID of the sending department\n    /// @param pct the *percentage* that will get forwarded to the first delegate. The rest gets sent to the second delegate.\n    function fixedSplit(bytes32 from, uint8 pct) external  {\n        bytes32[] memory to = accounting[from].delegates; // the receiving departments are the delegates\n        require(to.length == 2);\n        require(pct >=0 && pct <= 100);\n\n        uint80 power_for_delegation = departments[from].getPower();\n\n        // delegate to the 2 receiving departments\n        departments[to[0]] = departments[to[0]].increaseDelegatedPower(\n            power_for_delegation * pct / 100\n        );\n        emit Forwarded(\n            from, \n            to[0], \n            power_for_delegation * pct / 100\n        );\n\n        departments[to[1]] = departments[to[1]].increaseDelegatedPower(\n            power_for_delegation * (100-pct) / 100\n        );\n        emit Forwarded(\n            from, \n            to[1], \n            power_for_delegation * (100-pct) / 100\n        );\n\n        // Clear\n        clearDepartment(from, power_for_delegation);\n    }\n\n\n\n    /// @dev Called by an accountant to forward the consumption of a department based on its delegates' headcounts. \n    /// @param from the ID of the sending department\n    function headcountSplit(bytes32 from) external  {\n\n        bytes32 receiver;\n        bytes32[] memory to = accounting[from].delegates;\n\n        uint80 power_for_delegation = departments[from].getPower();\n        uint80 power;\n        uint8 headcount;\n        uint length = to.length;\n\n\n        for (uint i = 0 ; i < length ; i++) {\n            receiver = departments[to[i]]; // \n            headcount = receiver.getHeadcount();\n\n            power = power_for_delegation * headcount / 100;\n            receiver = receiver.increaseDelegatedPower(power);\n\n            // and store it back\n            departments[to[i]] = receiver;\n\n            emit Forwarded(from, to[i], power);\n        }\n\n        clearDepartment(from, power_for_delegation);\n    }\n\n    /// @dev Called by an accountant to bill a department. If a department has been cleared int he past, the cleared amount is not billed again to prevent double-billing\n    /// @param departmentID the department to be billed\n    /// @param power the power consumption to be billed\n    function billPower(bytes32 departmentID, uint80 power) external  {\n        bytes32 department = departments[departmentID];\n        uint80 cleared = department.getClearedPower();\n\n        // Since meters always ping their latest value\n        // only bill power that has not been cleared yet\n        // by definition cleared < power\n        department = department.setPower(power - cleared);\n        departments[departmentID] = department;\n    }\n\n    /// @dev Called by an accountant to clear a department. It increases the amount of power that has been cleared, and resets the deparment's power.\n    /// @param departmentID the department to be cleared\n    /// @param cleared the power consumption to be cleared\n    function clearDepartment(bytes32 departmentID, uint80 cleared) public  { // an accountant can call that too\n        bytes32 department = departments[departmentID];\n        department = department.increaseClearedPower(cleared); \n        department = department.setPower(0); \n\n        departments[departmentID] = department;\n\n        emit Cleared(departmentID, cleared);\n    }\n}\n",
  "sourcePath": "/home/opsec/Diploma/metering-and-billing-of-energy-with-respect-to-scalability-and-security/smartcontracts-gascomparison/contracts/core/AccountingDBLib.sol",
  "compiler": {
    "name": "solc",
    "version": "0.4.21+commit.dfe3193c.Emscripten.clang"
  },
  "schemaVersion": "2.0.0",
  "updatedAt": "2018-04-29T13:39:30.235Z"
}