{
  "contractName": "MeterDBLib",
  "abi": [
    {
      "constant": true,
      "inputs": [
        {
          "name": "",
          "type": "address"
        }
      ],
      "name": "meters",
      "outputs": [
        {
          "name": "",
          "type": "bytes32"
        }
      ],
      "payable": false,
      "stateMutability": "view",
      "type": "function"
    },
    {
      "constant": true,
      "inputs": [
        {
          "name": "",
          "type": "bytes8"
        }
      ],
      "name": "meterAddressById",
      "outputs": [
        {
          "name": "",
          "type": "address"
        }
      ],
      "payable": false,
      "stateMutability": "view",
      "type": "function"
    },
    {
      "constant": true,
      "inputs": [
        {
          "name": "",
          "type": "uint256"
        }
      ],
      "name": "meterAddresses",
      "outputs": [
        {
          "name": "",
          "type": "address"
        }
      ],
      "payable": false,
      "stateMutability": "view",
      "type": "function"
    },
    {
      "anonymous": false,
      "inputs": [
        {
          "indexed": true,
          "name": "meterAddress",
          "type": "address"
        },
        {
          "indexed": true,
          "name": "meterId",
          "type": "bytes8"
        }
      ],
      "name": "Activated",
      "type": "event"
    },
    {
      "anonymous": false,
      "inputs": [
        {
          "indexed": true,
          "name": "meterAddress",
          "type": "address"
        }
      ],
      "name": "Deactivated",
      "type": "event"
    },
    {
      "anonymous": false,
      "inputs": [
        {
          "indexed": true,
          "name": "meterAddress",
          "type": "address"
        },
        {
          "indexed": true,
          "name": "meterId",
          "type": "bytes8"
        },
        {
          "indexed": false,
          "name": "power",
          "type": "uint48"
        },
        {
          "indexed": false,
          "name": "timestamp",
          "type": "uint32"
        }
      ],
      "name": "Pinged",
      "type": "event"
    },
    {
      "constant": true,
      "inputs": [
        {
          "name": "_address",
          "type": "address"
        }
      ],
      "name": "isActive",
      "outputs": [
        {
          "name": "active",
          "type": "bool"
        }
      ],
      "payable": false,
      "stateMutability": "view",
      "type": "function"
    },
    {
      "constant": false,
      "inputs": [
        {
          "name": "_addresses",
          "type": "address[]"
        },
        {
          "name": "_ids",
          "type": "bytes8[]"
        }
      ],
      "name": "activateMeterBatch",
      "outputs": [],
      "payable": false,
      "stateMutability": "nonpayable",
      "type": "function"
    },
    {
      "constant": false,
      "inputs": [
        {
          "name": "_address",
          "type": "address"
        },
        {
          "name": "_id",
          "type": "bytes8"
        }
      ],
      "name": "activateMeter",
      "outputs": [],
      "payable": false,
      "stateMutability": "nonpayable",
      "type": "function"
    },
    {
      "constant": false,
      "inputs": [
        {
          "name": "_address",
          "type": "address"
        }
      ],
      "name": "deactivateMeter",
      "outputs": [],
      "payable": false,
      "stateMutability": "nonpayable",
      "type": "function"
    },
    {
      "constant": true,
      "inputs": [
        {
          "name": "_address",
          "type": "address"
        }
      ],
      "name": "getCurrentMeterData",
      "outputs": [
        {
          "name": "",
          "type": "bytes8"
        },
        {
          "name": "",
          "type": "uint48"
        },
        {
          "name": "",
          "type": "uint32"
        }
      ],
      "payable": false,
      "stateMutability": "view",
      "type": "function"
    },
    {
      "constant": true,
      "inputs": [
        {
          "name": "_id",
          "type": "bytes8"
        }
      ],
      "name": "getCurrentMeterDataById",
      "outputs": [
        {
          "name": "",
          "type": "bytes8"
        },
        {
          "name": "",
          "type": "uint48"
        },
        {
          "name": "",
          "type": "uint32"
        }
      ],
      "payable": false,
      "stateMutability": "view",
      "type": "function"
    },
    {
      "constant": false,
      "inputs": [
        {
          "name": "power",
          "type": "uint48"
        },
        {
          "name": "timestamp",
          "type": "uint32"
        }
      ],
      "name": "ping",
      "outputs": [],
      "payable": false,
      "stateMutability": "nonpayable",
      "type": "function"
    }
  ],
  "bytecode": "0x6060604052341561000f57600080fd5b6108b08061001e6000396000f3006060604052600436106100a35763ffffffff7c01000000000000000000000000000000000000000000000000000000006000350416630da7058a81146100a857806327f208a5146101035780638d784cca146101235780639f8a13d7146101b4578063a55d0aaa146101e7578063b2766b5c14610218578063bf98148414610254578063d2fdb6fa1461026a578063d316dc3514610291578063f6042b35146102bd575b600080fd5b34156100b357600080fd5b6100c7600160a060020a03600435166102dc565b604051600160c060020a0319909316835265ffffffffffff909116602083015263ffffffff166040808301919091526060909101905180910390f35b341561010e57600080fd5b6100c7600160c060020a031960043516610322565b341561012e57600080fd5b6101b260046024813581810190830135806020818102016040519081016040528093929190818152602001838360200280828437820191505050505050919080359060200190820180359060200190808060200260200160405190810160405280939291908181526020018383602002808284375094965061035f95505050505050565b005b34156101bf57600080fd5b6101d3600160a060020a03600435166103c1565b604051901515815260200160405180910390f35b34156101f257600080fd5b610206600160a060020a03600435166103e9565b60405190815260200160405180910390f35b341561022357600080fd5b610238600160c060020a0319600435166103fb565b604051600160a060020a03909116815260200160405180910390f35b341561025f57600080fd5b610238600435610416565b341561027557600080fd5b6101b265ffffffffffff6004351663ffffffff6024351661043e565b341561029c57600080fd5b6101b2600160a060020a0360043516600160c060020a031960243516610512565b34156102c857600080fd5b6101b2600160a060020a0360043516610600565b600160a060020a038116600090815260208190526040812054819081906103028161065f565b61030b82610696565b610314836106b2565b935093509350509193909250565b600160c060020a031981166000908152600160205260408120548190819061035290600160a060020a03166102dc565b9250925092509193909250565b600080835191508251821461037357600080fd5b5060005b818110156103bb576103b384828151811061038e57fe5b906020019060200201518483815181106103a457fe5b90602001906020020151610512565b600101610377565b50505050565b600160a060020a0381166000908152602081905260408120546103e3906106d2565b92915050565b60006020819052908152604090205481565b600160205260009081526040902054600160a060020a031681565b600280548290811061042457fe5b600091825260209091200154600160a060020a0316905081565b610447336103c1565b151561045257600080fd5b600160a060020a03331660009081526020819052604090205461048d908290610481908563ffffffff6106e916565b9063ffffffff61072e16565b600160a060020a03331660009081526020819052604090208190556104b19061065f565b600160c060020a031916600160a060020a0333167ff64dae5bd0a265818d0355dd1d22633c5433add60d4fa7c384fb8757255290d1848460405165ffffffffffff909216825263ffffffff1660208201526040908101905180910390a35050565b600061051d836103c1565b1561052757600080fd5b6105308161076d565b9050610542818363ffffffff61077d16565b600160a060020a0384166000908152602081905260409020819055600280549192509060018101610573838261083a565b5060009182526020808320919091018054600160a060020a03871673ffffffffffffffffffffffffffffffffffffffff199182168117909255600160c060020a03198616808552600190935260409384902080549091168217905590917faf478f6cce2165e46b9b802191847389ab5d61596d3e63490bfc040622b50151905160405180910390a3505050565b610609816103c1565b151561061457600080fd5b600160a060020a038116600081815260208190526040808220919091557f749cb6b4c510bc468cf6b9c2086d6f0a54d6b18e25d37bf3200e68eab0880c00905160405180910390a250565b60006106758267ffffffffffffffff60026107b6565b78010000000000000000000000000000000000000000000000000292915050565b60006103e38265ffffffffffff680200000000000000006107b6565b60006103e38263ffffffff6e0200000000000000000000000000006107b6565b60006106e0826001806107b6565b60011492915050565b6000806106f584610696565b905061070184826107cf565b93506107268465ffffffffffff680200000000000000008665ffffffffffff166107fa565b949350505050565b60008061073a846106b2565b90506107468482610809565b93506107268463ffffffff6e0200000000000000000000000000008663ffffffff166107fa565b60006103e38260018060016107fa565b60006107af8367ffffffffffffffff6002780100000000000000000000000000000000000000000000000086046107fa565b9392505050565b600081848115156107c357fe5b04831690509392505050565b60006107af8365ffffffffffff72020000000000000000000000000000000000008565ffffffffffff165b82168102910219919091161790565b60006107af8363ffffffff78020000000000000000000000000000000000000000000000008563ffffffff166107fa565b81548183558181151161085e5760008381526020902061085e918101908301610863565b505050565b61088191905b8082111561087d5760008155600101610869565b5090565b905600a165627a7a723058203e7b571b4eb291185b7b4711fe31f6989f7648fc62d9996e63e29f89435add7e0029",
  "source": "pragma solidity ^0.4.21;\n\n\nimport '../libs/Meter.sol';\n\n/**\n * @title MeterDB\n * @dev This contract stores the energy values for all meters\n */\n\ncontract MeterDBLib {\n    using Meter for bytes32;\n\n    /* Events */\n    event Activated(address indexed meterAddress, bytes8 indexed meterId);\n    event Deactivated(address indexed meterAddress);\n    event Pinged(address indexed meterAddress, bytes8 indexed meterId, uint48 power, uint32 timestamp);\n\n    /* Storage */\n    mapping (address => bytes32) public meters;\n    mapping (bytes8 => address) public meterAddressById;\n    address[] public meterAddresses;\n\n    /* Modifiers */\n    modifier onlyMeter() {\n        require(isActive(msg.sender));\n        _;\n    }\n\n    /// @dev Checks if an address is registered as a meter\n    /// @param _address the address to check\n    /// @return active True if a meter is activated by an operator\n    function isActive(address _address) public view returns (bool active) {\n        active = meters[_address].isActive();\n        return active;\n    }\n\n    /* Functions */\n\n    /// @dev allows an authorized operator to enable multiple meters\n    /// @param _addresses array of addresses of the meters to be enabled\n    /// @param _ids array of identifier of the meters to be enabled \n    function activateMeterBatch(address[] _addresses, bytes8[] _ids) public {\n        uint length = _addresses.length;\n        require(length == _ids.length);\n\n        for (uint i=0; i< length; i++) {\n            activateMeter(_addresses[i], _ids[i]);\n        }\n    }\n\n    /// @dev allows an authorized operator to enable a meter\n    /// @param _address The address of the meter to be enabled\n    /// @param _id The identifier of the meter to be enabled (ELTXX, VMXX, KMZXX in our case)\n    function activateMeter(address _address, bytes8 _id) public {\n       require(!isActive(_address)); \n       bytes32 meter = meter.activateMeter();\n       meter = meter.setId(_id);\n\n       meters[_address] = meter;\n       meterAddresses.push(_address);\n       meterAddressById[_id] = _address;\n\n       emit Activated(_address, _id);\n    }\n\n    /// @dev allows an authorized operator to disable a meter\n    /// @param _address The address of the meter to be disabled\n    function deactivateMeter(address _address) external  {\n        require(isActive(_address)); \n        delete meters[_address];\n\n        emit Deactivated(_address);\n    }\n\n    /// @dev Gets the consumption of a meter given an address\n    /// @param _address The address of the meter to inspect\n    /// @return id The meter id\n    /// @return power The meter power consumption\n    /// @return timestamp The timestamp at which the power reading was stored\n    function getCurrentMeterData(address _address) public view returns (bytes8, uint48, uint32) {\n        bytes32 meter = meters[_address];\n        return (\n            meter.getId(),\n            meter.getCurrentPower(),\n            meter.getCurrentTimestamp()\n       );\n    }\n\n    /// @dev Gets the consumption of a meter given an id\n    /// @param _id The id of the meter to inspect\n    /// @return id The meter id\n    /// @return power The meter power consumption\n    /// @return timestamp The timestamp at which the power reading was stored\n    function getCurrentMeterDataById(bytes8 _id) external view returns (bytes8, uint48, uint32) {\n        return getCurrentMeterData(meterAddressById[_id]);\n    }\n\n    /// @dev Pings the consumption of a meter at a given timestamp\n    /// @param power The power consumption **in kWh** -- subject to change, depends on client implementation\n    /// @param timestamp The timestamp in **seconds**\n    function ping(uint48 power, uint32 timestamp) external onlyMeter {\n        // do all writes in memory to save gas\n        // bytes32 meter = meters[msg.sender];\n        // meter = meter.setPower(power);\n        // meter = meter.setTimestamp(timestamp);\n\n        // // write to storage\n        // meters[msg.sender] = meter;\n        meters[msg.sender] = meters[msg.sender].setPower(power).setTimestamp(timestamp);\n\n        emit Pinged(msg.sender, meters[msg.sender].getId(), power, timestamp);\n    }\n\n}\n",
  "sourcePath": "/home/opsec/Diploma/metering-and-billing-of-energy-with-respect-to-scalability-and-security/smartcontracts-gascomparison/contracts/core/MeterDBLib.sol",
  "compiler": {
    "name": "solc",
    "version": "0.4.21+commit.dfe3193c.Emscripten.clang"
  },
  "schemaVersion": "2.0.0",
  "updatedAt": "2018-04-29T13:39:30.242Z"
}