{
  "contractName": "MeterDBStructs",
  "abi": [
    {
      "constant": true,
      "inputs": [
        {
          "name": "",
          "type": "address"
        }
      ],
      "name": "meters",
      "outputs": [
        {
          "name": "active",
          "type": "bool"
        },
        {
          "name": "id",
          "type": "bytes8"
        },
        {
          "name": "lastPower",
          "type": "uint48"
        },
        {
          "name": "lastTimestamp",
          "type": "uint32"
        },
        {
          "name": "power",
          "type": "uint48"
        },
        {
          "name": "timestamp",
          "type": "uint32"
        }
      ],
      "payable": false,
      "stateMutability": "view",
      "type": "function"
    },
    {
      "constant": true,
      "inputs": [
        {
          "name": "",
          "type": "bytes8"
        }
      ],
      "name": "meterAddressById",
      "outputs": [
        {
          "name": "",
          "type": "address"
        }
      ],
      "payable": false,
      "stateMutability": "view",
      "type": "function"
    },
    {
      "constant": true,
      "inputs": [
        {
          "name": "",
          "type": "uint256"
        }
      ],
      "name": "meterAddresses",
      "outputs": [
        {
          "name": "",
          "type": "address"
        }
      ],
      "payable": false,
      "stateMutability": "view",
      "type": "function"
    },
    {
      "anonymous": false,
      "inputs": [
        {
          "indexed": true,
          "name": "meterAddress",
          "type": "address"
        },
        {
          "indexed": true,
          "name": "meterId",
          "type": "bytes8"
        }
      ],
      "name": "Activated",
      "type": "event"
    },
    {
      "anonymous": false,
      "inputs": [
        {
          "indexed": true,
          "name": "meterAddress",
          "type": "address"
        }
      ],
      "name": "Deactivated",
      "type": "event"
    },
    {
      "anonymous": false,
      "inputs": [
        {
          "indexed": true,
          "name": "meterAddress",
          "type": "address"
        },
        {
          "indexed": true,
          "name": "meterId",
          "type": "bytes8"
        },
        {
          "indexed": false,
          "name": "power",
          "type": "uint48"
        },
        {
          "indexed": false,
          "name": "timestamp",
          "type": "uint32"
        }
      ],
      "name": "Pinged",
      "type": "event"
    },
    {
      "constant": true,
      "inputs": [
        {
          "name": "_address",
          "type": "address"
        }
      ],
      "name": "isActive",
      "outputs": [
        {
          "name": "active",
          "type": "bool"
        }
      ],
      "payable": false,
      "stateMutability": "view",
      "type": "function"
    },
    {
      "constant": false,
      "inputs": [
        {
          "name": "_addresses",
          "type": "address[]"
        },
        {
          "name": "_ids",
          "type": "bytes8[]"
        }
      ],
      "name": "activateMeterBatch",
      "outputs": [],
      "payable": false,
      "stateMutability": "nonpayable",
      "type": "function"
    },
    {
      "constant": false,
      "inputs": [
        {
          "name": "_address",
          "type": "address"
        },
        {
          "name": "_id",
          "type": "bytes8"
        }
      ],
      "name": "activateMeter",
      "outputs": [],
      "payable": false,
      "stateMutability": "nonpayable",
      "type": "function"
    },
    {
      "constant": false,
      "inputs": [
        {
          "name": "_address",
          "type": "address"
        }
      ],
      "name": "deactivateMeter",
      "outputs": [],
      "payable": false,
      "stateMutability": "nonpayable",
      "type": "function"
    },
    {
      "constant": true,
      "inputs": [
        {
          "name": "_address",
          "type": "address"
        }
      ],
      "name": "getCurrentMeterData",
      "outputs": [
        {
          "name": "",
          "type": "bytes8"
        },
        {
          "name": "",
          "type": "uint48"
        },
        {
          "name": "",
          "type": "uint32"
        }
      ],
      "payable": false,
      "stateMutability": "view",
      "type": "function"
    },
    {
      "constant": true,
      "inputs": [
        {
          "name": "_id",
          "type": "bytes8"
        }
      ],
      "name": "getCurrentMeterDataById",
      "outputs": [
        {
          "name": "",
          "type": "bytes8"
        },
        {
          "name": "",
          "type": "uint48"
        },
        {
          "name": "",
          "type": "uint32"
        }
      ],
      "payable": false,
      "stateMutability": "view",
      "type": "function"
    },
    {
      "constant": false,
      "inputs": [
        {
          "name": "power",
          "type": "uint48"
        },
        {
          "name": "timestamp",
          "type": "uint32"
        }
      ],
      "name": "ping",
      "outputs": [],
      "payable": false,
      "stateMutability": "nonpayable",
      "type": "function"
    }
  ],
  "bytecode": "0x6060604052341561000f57600080fd5b610b198061001e6000396000f3006060604052600436106100a35763ffffffff7c01000000000000000000000000000000000000000000000000000000006000350416630da7058a81146100a857806327f208a5146101035780638d784cca146101235780639f8a13d7146101b4578063a55d0aaa146101e7578063b2766b5c1461025c578063bf98148414610298578063d2fdb6fa146102ae578063d316dc35146102d5578063f6042b3514610301575b600080fd5b34156100b357600080fd5b6100c7600160a060020a0360043516610320565b604051600160c060020a0319909316835265ffffffffffff909116602083015263ffffffff166040808301919091526060909101905180910390f35b341561010e57600080fd5b6100c7600160c060020a0319600435166103f0565b341561012e57600080fd5b6101b260046024813581810190830135806020818102016040519081016040528093929190818152602001838360200280828437820191505050505050919080359060200190820180359060200190808060200260200160405190810160405280939291908181526020018383602002808284375094965061042a95505050505050565b005b34156101bf57600080fd5b6101d3600160a060020a036004351661048c565b604051901515815260200160405180910390f35b34156101f257600080fd5b610206600160a060020a03600435166104aa565b6040519515158652600160c060020a0319909416602086015265ffffffffffff92831660408087019190915263ffffffff9283166060870152921660808501529190911660a083015260c0909101905180910390f35b341561026757600080fd5b61027c600160c060020a031960043516610510565b604051600160a060020a03909116815260200160405180910390f35b34156102a357600080fd5b61027c60043561052b565b34156102b957600080fd5b6101b265ffffffffffff6004351663ffffffff60243516610553565b34156102e057600080fd5b6101b2600160a060020a0360043516600160c060020a0319602435166107e8565b341561030c57600080fd5b6101b2600160a060020a03600435166109ec565b600080600061032d610a6e565b600160a060020a038516600090815260208190526040908190209060c090519081016040908152915460ff811615158252600160c060020a031960c060020a610100830402166020830190815265ffffffffffff6901000000000000000000830481169484019490945263ffffffff6f01000000000000000000000000000000830481166060850152609860020a8304909416608084015260c860020a90910490921660a082015291505181608001518260a00151935093509350509193909250565b600160c060020a031981166000908152600160205260408120548190819061042090600160a060020a0316610320565b5050509193909250565b600080835191508251821461043e57600080fd5b5060005b818110156104865761047e84828151811061045957fe5b9060200190602002015184838151811061046f57fe5b906020019060200201516107e8565b600101610442565b50505050565b600160a060020a031660009081526020819052604090205460ff1690565b60006020819052908152604090205460ff81169060c060020a6101008204029065ffffffffffff6901000000000000000000820481169163ffffffff6f010000000000000000000000000000008204811692609860020a8304169160c860020a90041686565b600160205260009081526040902054600160a060020a031681565b600280548290811061053957fe5b600091825260209091200154600160a060020a0316905081565b61055b610a6e565b6105643361048c565b151561056f57600080fd5b600160a060020a033316600090815260208190526040908190209060c090519081016040908152915460ff811615158252600160c060020a031960c060020a61010083040216602083015265ffffffffffff6901000000000000000000820481169383019390935263ffffffff6f01000000000000000000000000000000820481166060840152609860020a82049093166080830190815260c860020a90910490921660a082015291505165ffffffffffff16604082015260a081015163ffffffff908116606083015265ffffffffffff84166080830152821660a0820152600160a060020a033316600090815260208190526040902081908151815460ff19169015151781556020820151815460c060020a9091046101000268ffffffffffffffff00199091161781556040820151815465ffffffffffff919091166901000000000000000000026effffffffffff000000000000000000199091161781556060820151815463ffffffff919091166f010000000000000000000000000000000272ffffffff000000000000000000000000000000199091161781556080820151815465ffffffffffff91909116609860020a0278ffffffffffff000000000000000000000000000000000000001990911617815560a0820151815463ffffffff9190911660c860020a027cffffffff0000000000000000000000000000000000000000000000000019909116179055506020810151600160c060020a031916600160a060020a0333167ff64dae5bd0a265818d0355dd1d22633c5433add60d4fa7c384fb8757255290d1858560405165ffffffffffff909216825263ffffffff1660208201526040908101905180910390a3505050565b6107f0610a6e565b6107f98361048c565b1561080357600080fd5b60018152600160c060020a03198216602080830191909152600160a060020a0384166000908152908190526040902081908151815460ff19169015151781556020820151815460c060020a9091046101000268ffffffffffffffff00199091161781556040820151815465ffffffffffff919091166901000000000000000000026effffffffffff000000000000000000199091161781556060820151815463ffffffff919091166f010000000000000000000000000000000272ffffffff000000000000000000000000000000199091161781556080820151815465ffffffffffff91909116609860020a0278ffffffffffff000000000000000000000000000000000000001990911617815560a0820151815463ffffffff9190911660c860020a027cffffffff000000000000000000000000000000000000000000000000001990911617905550600280546001810161095f8382610aa3565b5060009182526020808320919091018054600160a060020a03871673ffffffffffffffffffffffffffffffffffffffff199182168117909255600160c060020a03198616808552600190935260409384902080549091168217905590917faf478f6cce2165e46b9b802191847389ab5d61596d3e63490bfc040622b50151905160405180910390a3505050565b6109f58161048c565b1515610a0057600080fd5b600160a060020a0381166000818152602081905260409081902080547fffffff00000000000000000000000000000000000000000000000000000000001690557f749cb6b4c510bc468cf6b9c2086d6f0a54d6b18e25d37bf3200e68eab0880c00905160405180910390a250565b60c06040519081016040908152600080835260208301819052908201819052606082018190526080820181905260a082015290565b815481835581811511610ac757600083815260209020610ac7918101908301610acc565b505050565b610aea91905b80821115610ae65760008155600101610ad2565b5090565b905600a165627a7a723058204650748d81862e871a324f052053c3e86a7d6fad9ab53ce4e44bcd00e086e6e80029",
  "source": "pragma solidity ^0.4.21;\n\n\n/**\n * @title MeterDB\n * @dev This contract stores the energy values for all meters\n */\n\ncontract MeterDBStructs {\n\n    /* Events */\n    event Activated(address indexed meterAddress, bytes8 indexed meterId);\n    event Deactivated(address indexed meterAddress);\n    event Pinged(address indexed meterAddress, bytes8 indexed meterId, uint48 power, uint32 timestamp);\n\n    /* Storage */\n\n    struct Meter {\n        bool active;\n        bytes8 id;\n        uint48 lastPower;\n        uint32 lastTimestamp;\n        uint48 power;\n        uint32 timestamp;\n    }\n\n    mapping (address => Meter) public meters;\n    mapping (bytes8 => address) public meterAddressById;\n    address[] public meterAddresses;\n\n    /* Modifiers */\n    modifier onlyMeter() {\n        require(isActive(msg.sender));\n        _;\n    }\n\n    /// @dev Checks if an address is registered as a meter\n    /// @param _address the address to check\n    /// @return active True if a meter is activated by an operator\n    function isActive(address _address) public view returns (bool active) {\n        active = meters[_address].active;\n        return active;\n    }\n\n    /* Functions */\n\n    /// @dev allows an authorized operator to enable multiple meters\n    /// @param _addresses array of addresses of the meters to be enabled\n    /// @param _ids array of identifier of the meters to be enabled \n    function activateMeterBatch(address[] _addresses, bytes8[] _ids) public {\n        uint length = _addresses.length;\n        require(length == _ids.length);\n\n        for (uint i=0; i< length; i++) {\n            activateMeter(_addresses[i], _ids[i]);\n        }\n    }\n\n    /// @dev allows an authorized operator to enable a meter\n    /// @param _address The address of the meter to be enabled\n    /// @param _id The identifier of the meter to be enabled (ELTXX, VMXX, KMZXX in our case)\n    function activateMeter(address _address, bytes8 _id) public {\n       require(!isActive(_address));\n       Meter memory meter;\n       meter.active = true;\n       meter.id = _id; \n \n       meters[_address] = meter;\n       meterAddresses.push(_address);\n       meterAddressById[_id] = _address;\n\n       emit Activated(_address, _id);\n    }\n\n    /// @dev allows an authorized operator to disable a meter\n    /// @param _address The address of the meter to be disabled\n    function deactivateMeter(address _address) external {\n        require(isActive(_address));\n        delete meters[_address];\n\n        emit Deactivated(_address);\n    }\n\n    /// @dev Gets the consumption of a meter given an address\n    /// @param _address The address of the meter to inspect\n    /// @return id The meter id\n    /// @return power The meter power consumption\n    /// @return timestamp The timestamp at which the power reading was stored\n    function getCurrentMeterData(address _address) public view returns (bytes8, uint48, uint32) {\n        Meter memory meter = meters[_address];\n        return (\n            meter.id,\n            meter.power,\n            meter.timestamp\n       );\n    }\n\n    /// @dev Gets the consumption of a meter given an id\n    /// @param _id The id of the meter to inspect\n    /// @return id The meter id\n    /// @return power The meter power consumption\n    /// @return timestamp The timestamp at which the power reading was stored\n    function getCurrentMeterDataById(bytes8 _id) external view returns (bytes8, uint48, uint32) {\n         getCurrentMeterData(meterAddressById[_id]);\n    }\n\n    /// @dev Pings the consumption of a meter at a given timestamp\n    /// @param power The power consumption **in kWh** -- subject to change, depends on client implementation\n    /// @param timestamp The timestamp in **seconds**\n    function ping(uint48 power, uint32 timestamp) external onlyMeter {\n        // do all writes in memory to save gas\n        Meter memory meter = meters[msg.sender]; \n        meter.lastPower = meter.power;\n        meter.lastTimestamp = meter.timestamp;\n        meter.power = power;\n        meter.timestamp = timestamp;\n\n        meters[msg.sender] = meter;\n                \n        emit Pinged(msg.sender, meter.id,  power, timestamp);\n    }\n\n}\n",
  "sourcePath": "/home/opsec/Diploma/metering-and-billing-of-energy-with-respect-to-scalability-and-security/smartcontracts-gascomparison/contracts/core/MeterDBStructs.sol",
  "compiler": {
    "name": "solc",
    "version": "0.4.21+commit.dfe3193c.Emscripten.clang"
  },
  "schemaVersion": "2.0.0",
  "updatedAt": "2018-04-29T13:39:30.243Z"
}