{
  "contractName": "AccountingDB",
  "abi": [
    {
      "constant": false,
      "inputs": [
        {
          "name": "owner_",
          "type": "address"
        }
      ],
      "name": "setOwner",
      "outputs": [],
      "payable": false,
      "stateMutability": "nonpayable",
      "type": "function"
    },
    {
      "constant": false,
      "inputs": [
        {
          "name": "authority_",
          "type": "address"
        }
      ],
      "name": "setAuthority",
      "outputs": [],
      "payable": false,
      "stateMutability": "nonpayable",
      "type": "function"
    },
    {
      "constant": true,
      "inputs": [],
      "name": "owner",
      "outputs": [
        {
          "name": "",
          "type": "address"
        }
      ],
      "payable": false,
      "stateMutability": "view",
      "type": "function"
    },
    {
      "constant": true,
      "inputs": [],
      "name": "authority",
      "outputs": [
        {
          "name": "",
          "type": "address"
        }
      ],
      "payable": false,
      "stateMutability": "view",
      "type": "function"
    },
    {
      "constant": true,
      "inputs": [
        {
          "name": "src",
          "type": "address"
        },
        {
          "name": "sig",
          "type": "bytes4"
        }
      ],
      "name": "isAuthorized",
      "outputs": [
        {
          "name": "",
          "type": "bool"
        }
      ],
      "payable": false,
      "stateMutability": "view",
      "type": "function"
    },
    {
      "anonymous": false,
      "inputs": [
        {
          "indexed": true,
          "name": "department",
          "type": "bytes32"
        }
      ],
      "name": "Activated",
      "type": "event"
    },
    {
      "anonymous": false,
      "inputs": [
        {
          "indexed": true,
          "name": "department",
          "type": "bytes32"
        }
      ],
      "name": "Deactivated",
      "type": "event"
    },
    {
      "anonymous": false,
      "inputs": [
        {
          "indexed": true,
          "name": "from",
          "type": "bytes32"
        },
        {
          "indexed": true,
          "name": "to",
          "type": "bytes32"
        },
        {
          "indexed": false,
          "name": "amount",
          "type": "uint80"
        }
      ],
      "name": "Forwarded",
      "type": "event"
    },
    {
      "anonymous": false,
      "inputs": [
        {
          "indexed": true,
          "name": "department",
          "type": "bytes32"
        },
        {
          "indexed": false,
          "name": "amount",
          "type": "uint80"
        }
      ],
      "name": "Cleared",
      "type": "event"
    },
    {
      "anonymous": false,
      "inputs": [
        {
          "indexed": true,
          "name": "authority",
          "type": "address"
        }
      ],
      "name": "LogSetAuthority",
      "type": "event"
    },
    {
      "anonymous": false,
      "inputs": [
        {
          "indexed": true,
          "name": "owner",
          "type": "address"
        }
      ],
      "name": "LogSetOwner",
      "type": "event"
    },
    {
      "constant": false,
      "inputs": [
        {
          "name": "departmentIDs",
          "type": "bytes32[]"
        }
      ],
      "name": "activateDepartments",
      "outputs": [],
      "payable": false,
      "stateMutability": "nonpayable",
      "type": "function"
    },
    {
      "constant": false,
      "inputs": [
        {
          "name": "departmentID",
          "type": "bytes32"
        }
      ],
      "name": "activateDepartment",
      "outputs": [],
      "payable": false,
      "stateMutability": "nonpayable",
      "type": "function"
    },
    {
      "constant": false,
      "inputs": [
        {
          "name": "departmentID",
          "type": "bytes32"
        }
      ],
      "name": "deactivateDepartment",
      "outputs": [],
      "payable": false,
      "stateMutability": "nonpayable",
      "type": "function"
    },
    {
      "constant": false,
      "inputs": [
        {
          "name": "departmentID",
          "type": "bytes32"
        },
        {
          "name": "delegates",
          "type": "bytes32[]"
        }
      ],
      "name": "setDelegates",
      "outputs": [],
      "payable": false,
      "stateMutability": "nonpayable",
      "type": "function"
    },
    {
      "constant": false,
      "inputs": [
        {
          "name": "departmentID",
          "type": "bytes32"
        },
        {
          "name": "virtualmeters",
          "type": "bytes8[]"
        }
      ],
      "name": "setVirtualMeters",
      "outputs": [],
      "payable": false,
      "stateMutability": "nonpayable",
      "type": "function"
    },
    {
      "constant": false,
      "inputs": [
        {
          "name": "departmentID",
          "type": "bytes32"
        },
        {
          "name": "subdepartments",
          "type": "bytes32[]"
        }
      ],
      "name": "setSubDepartments",
      "outputs": [],
      "payable": false,
      "stateMutability": "nonpayable",
      "type": "function"
    },
    {
      "constant": false,
      "inputs": [
        {
          "name": "departmentID",
          "type": "bytes32"
        },
        {
          "name": "headcount",
          "type": "uint8"
        }
      ],
      "name": "setHeadcount",
      "outputs": [],
      "payable": false,
      "stateMutability": "nonpayable",
      "type": "function"
    },
    {
      "constant": true,
      "inputs": [
        {
          "name": "departmentID",
          "type": "bytes32"
        }
      ],
      "name": "getAccountingData",
      "outputs": [
        {
          "name": "",
          "type": "bytes32[]"
        },
        {
          "name": "",
          "type": "bytes32[]"
        },
        {
          "name": "",
          "type": "bytes8[]"
        }
      ],
      "payable": false,
      "stateMutability": "view",
      "type": "function"
    },
    {
      "constant": true,
      "inputs": [
        {
          "name": "departmentID",
          "type": "bytes32"
        }
      ],
      "name": "getDepartmentData",
      "outputs": [
        {
          "name": "",
          "type": "bool"
        },
        {
          "name": "",
          "type": "uint8"
        },
        {
          "name": "",
          "type": "uint80"
        },
        {
          "name": "",
          "type": "uint80"
        },
        {
          "name": "",
          "type": "uint80"
        }
      ],
      "payable": false,
      "stateMutability": "view",
      "type": "function"
    },
    {
      "constant": false,
      "inputs": [
        {
          "name": "from",
          "type": "bytes32"
        },
        {
          "name": "pct",
          "type": "uint8"
        }
      ],
      "name": "fixedSplit",
      "outputs": [],
      "payable": false,
      "stateMutability": "nonpayable",
      "type": "function"
    },
    {
      "constant": false,
      "inputs": [
        {
          "name": "from",
          "type": "bytes32"
        }
      ],
      "name": "headcountSplit",
      "outputs": [],
      "payable": false,
      "stateMutability": "nonpayable",
      "type": "function"
    },
    {
      "constant": false,
      "inputs": [
        {
          "name": "departmentID",
          "type": "bytes32"
        },
        {
          "name": "power",
          "type": "uint80"
        }
      ],
      "name": "billPower",
      "outputs": [],
      "payable": false,
      "stateMutability": "nonpayable",
      "type": "function"
    },
    {
      "constant": false,
      "inputs": [
        {
          "name": "departmentID",
          "type": "bytes32"
        },
        {
          "name": "cleared",
          "type": "uint80"
        }
      ],
      "name": "clearDepartment",
      "outputs": [],
      "payable": false,
      "stateMutability": "nonpayable",
      "type": "function"
    }
  ],
  "bytecode": "0x6060604090815260018054600160a060020a03191633600160a060020a0316908117909155907fce241d7ca1f669fee44b6fc00b8eba2df3bb514eed0f6f668f8f89096e81ed94905160405180910390a26113b88061005f6000396000f3006060604052600436106100fb5763ffffffff7c01000000000000000000000000000000000000000000000000000000006000350416630a64fc5481146101005780630b45f0251461011857806313af4035146101365780631fd71440146101555780633638a9151461017a578063485892b414610190578063523972e5146101b25780635338248e146101ce5780636c4d211c146101f35780637a9e5e4b146102095780638da5cb5b14610228578063961083ee14610257578063a557d15f14610279578063b4000aa514610295578063bf7e214f146102b7578063c4253af3146102ca578063d9972b96146103be578063f06e141e146103fe575b600080fd5b341561010b57600080fd5b610116600435610459565b005b341561012357600080fd5b610116600480356024810191013561061b565b341561014157600080fd5b610116600160a060020a0360043516610654565b341561016057600080fd5b61011660043569ffffffffffffffffffff602435166106d3565b341561018557600080fd5b61011660043561073d565b341561019b57600080fd5b6101166004803590602480359081019101356107ba565b34156101bd57600080fd5b61011660043560ff602435166107f4565b34156101d957600080fd5b61011660043569ffffffffffffffffffff6024351661084a565b34156101fe57600080fd5b6101166004356108fd565b341561021457600080fd5b610116600160a060020a0360043516610993565b341561023357600080fd5b61023b610a12565b604051600160a060020a03909116815260200160405180910390f35b341561026257600080fd5b610116600480359060248035908101910135610a21565b341561028457600080fd5b61011660043560ff60243516610a5e565b34156102a057600080fd5b610116600480359060248035908101910135610cfd565b34156102c257600080fd5b61023b610d3b565b34156102d557600080fd5b6102e0600435610d4a565b60405180806020018060200180602001848103845287818151815260200191508051906020019060200280838360005b83811015610328578082015183820152602001610310565b50505050905001848103835286818151815260200191508051906020019060200280838360005b8381101561036757808201518382015260200161034f565b50505050905001848103825285818151815260200191508051906020019060200280838360005b838110156103a657808201518382015260200161038e565b50505050905001965050505050505060405180910390f35b34156103c957600080fd5b6103ea600160a060020a0360043516600160e060020a031960243516610ed9565b604051901515815260200160405180910390f35b341561040957600080fd5b610414600435610fd9565b604051941515855260ff909316602085015269ffffffffffffffffffff91821660408086019190915290821660608501529116608083015260a0909101905180910390f35b6000806104646111c1565b600080600080600061048233600035600160e060020a031916610ed9565b151561048d57600080fd5b60008981526003602090815260408083205460028352928190208054939b5092918281020190519081016040528092919081815260200182805480156104f357602002820191906000526020600020905b815481526001909101906020018083116104de575b505050505095506105078860001916611030565b945085519150600090505b81811015610606576003600087838151811061052a57fe5b906020019060200201518152602081019190915260400160002054965061055087611049565b9250606469ffffffffffffffffffff60ff8516870216049350610579878563ffffffff61105816565b9650866003600088848151811061058c57fe5b9060200190602002015181526020810191909152604001600020558581815181106105b357fe5b90602001906020020151897fce1b74090ead426b9401cb90f749c2a37afeaa716eaefe6e95c0168e4321e5928660405169ffffffffffffffffffff909116815260200160405180910390a3600101610512565b610610898661084a565b505050505050505050565b8060005b8181101561064e5761064684848381811061063657fe5b905060200201356000191661073d565b60010161061f565b50505050565b61066a33600035600160e060020a031916610ed9565b151561067557600080fd5b6001805473ffffffffffffffffffffffffffffffffffffffff1916600160a060020a038381169190911791829055167fce241d7ca1f669fee44b6fc00b8eba2df3bb514eed0f6f668f8f89096e81ed9460405160405180910390a250565b6000806106ec33600035600160e060020a031916610ed9565b15156106f757600080fd5b60008481526003602052604090205491506107118261109e565b90506107258282850363ffffffff6110cb16565b60009485526003602052604090942093909355505050565b61075333600035600160e060020a031916610ed9565b151561075e57600080fd5b600081815260036020526040902054610776906110f8565b600082815260036020526040908190209190915581907fe1abfe35306def8dbc83e3cb0bc76ffd144cee4ab7707b4e888afd4d24c2d6ca905160405180910390a250565b6107d033600035600160e060020a031916610ed9565b15156107db57600080fd5b600083815260026020526040902061064e9083836111d3565b61080a33600035600160e060020a031916610ed9565b151561081557600080fd5b600082815260036020526040902054610834908263ffffffff61110816565b6000928352600360205260409092209190915550565b600061086233600035600160e060020a031916610ed9565b151561086d57600080fd5b5060008281526003602052604090205461088d818363ffffffff61111b16565b90506108a081600063ffffffff6110cb16565b6000848152600360205260409081902082905590915083907f57d45dd6919036d72b0e02cdbee1b980a46740044acee19ef62bdffecd16a41b9084905169ffffffffffffffffffff909116815260200160405180910390a2505050565b61091333600035600160e060020a031916610ed9565b151561091e57600080fd5b600081815260036020908152604080832083905560029091528120906109448282611220565b610952600183016000611220565b610960600283016000611241565b508190507fe0c972902b8c453716a2a401ad60d945b4086632729c2e7d8c45843e386da56960405160405180910390a250565b6109a933600035600160e060020a031916610ed9565b15156109b457600080fd5b6000805473ffffffffffffffffffffffffffffffffffffffff1916600160a060020a038381169190911791829055167f1abebea81bfa2637f28358c371278fb15ede7ea8dd28d2e03b112ff6d936ada460405160405180910390a250565b600154600160a060020a031681565b610a3733600035600160e060020a031916610ed9565b1515610a4257600080fd5b600083815260026020526040902061064e9060010183836111d3565b610a666111c1565b600080610a7f33600035600160e060020a031916610ed9565b1515610a8a57600080fd5b600085815260026020908152604091829020805490929091828102019051908101604052809291908181526020018280548015610ae757602002820191906000526020600020905b81548152600190910190602001808311610ad2575b505050505092508251600214610afc57600080fd5b60008460ff1610158015610b14575060648460ff1611155b1515610b1f57600080fd5b6000858152600360205260409020549150610b3982611030565b9050610b8b606469ffffffffffffffffffff60ff8716840216046003600086600081518110610b6457fe5b9060200190602002015181526020810191909152604001600020549063ffffffff61105816565b6003600085600081518110610b9c57fe5b9060200190602002015181526020810191909152604001600090812091909155839081518110610bc857fe5b90602001906020020151857fce1b74090ead426b9401cb90f749c2a37afeaa716eaefe6e95c0168e4321e592606469ffffffffffffffffffff60ff89168602160460405169ffffffffffffffffffff909116815260200160405180910390a3610c52606469ffffffffffffffffffff60ff87830316840216046003600086600181518110610b6457fe5b6003600085600181518110610c6357fe5b90602001906020020151815260208101919091526040016000205582600181518110610c8b57fe5b90602001906020020151857fce1b74090ead426b9401cb90f749c2a37afeaa716eaefe6e95c0168e4321e592606469ffffffffffffffffffff60ff898303168602160460405169ffffffffffffffffffff909116815260200160405180910390a3610cf6858261084a565b5050505050565b610d1333600035600160e060020a031916610ed9565b1515610d1e57600080fd5b600083815260026020819052604090912061064e91018383611266565b600054600160a060020a031681565b610d526111c1565b610d5a6111c1565b610d626111c1565b6000848152600260208181526040928390208054909360018501938501928592918282029091019051908101604052809291908181526020018280548015610dca57602002820191906000526020600020905b81548152600190910190602001808311610db5575b5050505050925081805480602002602001604051908101604052809291908181526020018280548015610e1d57602002820191906000526020600020905b81548152600190910190602001808311610e08575b5050505050915080805480602002602001604051908101604052809291908181526020018280548015610ec557602002820191906000526020600020906000905b82829054906101000a900478010000000000000000000000000000000000000000000000000277ffffffffffffffffffffffffffffffffffffffffffffffff191681526020019060080190602082600701049283019260010382029150808411610e5e5790505b505050505090509250925092509193909250565b600030600160a060020a031683600160a060020a03161415610efd57506001610fd3565b600154600160a060020a0384811691161415610f1b57506001610fd3565b600054600160a060020a03161515610f3557506000610fd3565b600054600160a060020a031663b70096138430856040517c010000000000000000000000000000000000000000000000000000000063ffffffff8616028152600160a060020a039384166004820152919092166024820152600160e060020a03199091166044820152606401602060405180830381600087803b1515610fba57600080fd5b5af11515610fc757600080fd5b50505060405180519150505b92915050565b6000818152600360205260408120548190819081908190610ff981611163565b61100282611049565b61100b83611030565b6110148461117a565b61101d8561109e565b939b929a50909850965090945092505050565b6000610fd38269ffffffffffffffffffff610100611199565b6000610fd382607f6002611199565b6000806110648461117a565b90506110968469ffffffffffffffffffff6b01000000000000000000000086850169ffffffffffffffffffff166111b2565b949350505050565b6000610fd38269ffffffffffffffffffff7501000000000000000000000000000000000000000000611199565b60006110f18369ffffffffffffffffffff6101008569ffffffffffffffffffff166111b2565b9392505050565b6000610fd38260018060016111b2565b60006110f183607f60028560ff166111b2565b6000806111278461109e565b90506110968469ffffffffffffffffffff750100000000000000000000000000000000000000000086850169ffffffffffffffffffff166111b2565b600061117182600180611199565b60011492915050565b6000610fd38269ffffffffffffffffffff6b0100000000000000000000005b600081848115156111a657fe5b04831690509392505050565b82168102910219919091161790565b60206040519081016040526000815290565b828054828255906000526020600020908101928215611210579160200282015b8281111561121057823582556020909201916001909101906111f3565b5061121c92915061134a565b5090565b508054600082559060005260206000209081019061123e919061134a565b50565b50805460008255600301600490049060005260206000209081019061123e919061134a565b8280548282559060005260206000209060030160049004810192821561133e5791602002820160005b8382111561130857833577ffffffffffffffffffffffffffffffffffffffffffffffff191683826101000a81548167ffffffffffffffff0219169083780100000000000000000000000000000000000000000000000090040217905550926020019260080160208160070104928301926001030261128f565b801561133c5782816101000a81549067ffffffffffffffff0219169055600801602081600701049283019260010302611308565b505b5061121c929150611367565b61136491905b8082111561121c5760008155600101611350565b90565b61136491905b8082111561121c57805467ffffffffffffffff1916815560010161136d5600a165627a7a72305820be5147768f398464581dddddf643aaaecb5f77587b90be18f6af407609c70a770029",
  "source": "pragma solidity ^0.4.21;\n\nimport '../libs/Department.sol';\nimport '../libs/auth/DSAuth.sol';\n\n/**\n * @title AccountingDb\n * @dev Handles all accounting logic for departments\n */\n\ncontract AccountingDB is DSAuth {\n\n    using Department for bytes32;\n\n    /* Events */\n    event Activated(bytes32 indexed department);\n    event Deactivated(bytes32 indexed department);\n    event Forwarded(bytes32 indexed from, bytes32 indexed to, uint80 amount);\n    event Cleared(bytes32 indexed department, uint80 amount);\n\n    /* Storage */\n    struct Accounting {\n        bytes32[] delegates; // Departments to delegate to\n        bytes32[] subdepartments; // Departments to get readings from, used for top level departments such as HREG or for Admin_HRE\n        bytes8[] virtualmeters; // IDs of virtual meters { VM01- VM44} Should be bytes8 because that's how we define it in MeterDB\n    }\n\n    mapping (bytes32 => Accounting) accounting; // arrays of delegate/departments/virtual meters\n    mapping (bytes32 => bytes32) departments; // power - headcount\n\n\n    /* Public functions */\n\n    /// @dev Called by an operator to activate multiple departments in storage\n    /// @param departmentIDs array of Department IDs\n    function activateDepartments(bytes32[] departmentIDs) external {\n        uint length = departmentIDs.length;\n\n        for (uint i=0; i<length; i++) {\n            activateDepartment(departmentIDs[i]);\n        }\n\n    }\n\n    /// @dev Called by an operator to activate a department in storage\n    /// @param departmentID the ID of the department\n    function activateDepartment(bytes32 departmentID) public auth {\n        departments[departmentID] = departments[departmentID].activateDepartment();\n\n        emit Activated(departmentID);\n    }\n\n    /// @dev Called by an operator to deactivate a department in storage\n    /// @param departmentID the ID of the department\n    function deactivateDepartment(bytes32 departmentID) external auth {\n        delete departments[departmentID];\n        delete accounting[departmentID];\n\n        emit Deactivated(departmentID);\n    }\n\n    /// @dev Called by an operator to set the delegates for a department\n    /// @param departmentID the ID of the department\n    /// @param delegates array with the IDs of the delegates\n    function setDelegates(bytes32 departmentID, bytes32[] delegates) external auth {\n        accounting[departmentID].delegates = delegates;\n    }\n\n    /// @dev Called by an operator to set the virtualmeters for a department\n    /// @param departmentID the ID of the department\n    /// @param virtualmeters array with the IDs of the virtualmeters\n    function setVirtualMeters(bytes32 departmentID, bytes8[] virtualmeters) external auth {\n        accounting[departmentID].virtualmeters = virtualmeters;\n    }\n\n    /// @dev Called by an operator to set the subdepartments for a department\n    /// @param departmentID the ID of the department\n    /// @param subdepartments array with the IDs of the subdepartments\n    function setSubDepartments(bytes32 departmentID, bytes32[] subdepartments) external auth {\n        accounting[departmentID].subdepartments = subdepartments;\n    }\n\n    /// @dev Called by an operator to set the headcount for a department\n    /// @param departmentID the ID of the department\n    /// @param headcount the headcount PERCENTAGE of that department\n    function setHeadcount(bytes32 departmentID, uint8 headcount) external auth {\n        departments[departmentID] = departments[departmentID].setHeadcount(headcount);\n    }\n\n\n    /// @dev Given a departmentID fetch the delegates/subdepartments/virtualmeters\n    /// @param departmentID the ID of the department\n    function getAccountingData(bytes32 departmentID) external view returns (bytes32[], bytes32[], bytes8[]) {\n        return (\n            accounting[departmentID].delegates,\n            accounting[departmentID].subdepartments,\n            accounting[departmentID].virtualmeters\n        );\n    }\n\n    /// @dev Given a departmentID fetch if the department is active, its ehadcount and its power, delegated power and cleared power\n    /// @param departmentID the ID of the department\n    function getDepartmentData(bytes32 departmentID)\n        external\n        view\n        returns (bool, uint8, uint80, uint80, uint80)\n    {\n\n        bytes32 department = departments[departmentID];\n        return (\n            department.isActive(),\n            department.getHeadcount(),\n            department.getPower(),\n            department.getDelegatedPower(),\n            department.getClearedPower()\n        );\n    }\n\n    /// @dev Called by an accountant to forward the consumption of a department to two other departments, split in X% and (100-X)%\n    /// @param from the ID of the sending department\n    /// @param pct the *percentage* that will get forwarded to the first delegate. The rest gets sent to the second delegate.\n    function fixedSplit(bytes32 from, uint8 pct) external auth {\n        bytes32[] memory to = accounting[from].delegates; // the receiving departments are the delegates\n        require(to.length == 2);\n        require(pct >=0 && pct <= 100);\n\n        bytes32 department = departments[from];\n        uint80 power_for_delegation = department.getPower();\n\n        // delegate to the 2 receiving departments\n        departments[to[0]] = departments[to[0]].increaseDelegatedPower(\n            power_for_delegation * pct / 100\n        );\n        emit Forwarded(\n            from,\n            to[0],\n            power_for_delegation * pct / 100\n        );\n\n        departments[to[1]] = departments[to[1]].increaseDelegatedPower(\n            power_for_delegation * (100-pct) / 100\n        );\n        emit Forwarded(\n            from,\n            to[1],\n            power_for_delegation * (100-pct) / 100\n        );\n\n        // Clear\n        clearDepartment(from, power_for_delegation);\n    }\n\n\n\n    /// @dev Called by an accountant to forward the consumption of a department based on its delegates' headcounts.\n    /// @param from the ID of the sending department\n    function headcountSplit(bytes32 from) external auth {\n\n        bytes32 department = departments[from];\n        bytes32 receiver;\n        bytes32[] memory to = accounting[from].delegates;\n\n        uint80 power_for_delegation = department.getPower();\n        uint80 power;\n        uint8 headcount;\n        uint length = to.length;\n\n\n        for (uint i = 0 ; i < length ; i++) {\n            receiver = departments[to[i]]; //\n            headcount = receiver.getHeadcount();\n\n            power = power_for_delegation * headcount / 100;\n            receiver = receiver.increaseDelegatedPower(power);\n\n            // and store it back\n            departments[to[i]] = receiver;\n\n            emit Forwarded(from, to[i], power);\n        }\n\n        clearDepartment(from, power_for_delegation);\n    }\n\n    /// @dev Called by an accountant to bill a department. If a department has been cleared int he past, the cleared amount is not billed again to prevent double-billing\n    /// @param departmentID the department to be billed\n    /// @param power the power consumption to be billed\n    function billPower(bytes32 departmentID, uint80 power) external auth {\n        bytes32 department = departments[departmentID];\n        uint80 cleared = department.getClearedPower();\n\n        // Since meters always ping their latest value\n        // only bill power that has not been cleared yet\n        // by definition cleared < power\n\t\tdepartment = department.setPower(power - cleared);\n\t\tdepartments[departmentID] = department;\n    }\n\n    /// @dev Called by an accountant to clear a department. It increases the amount of power that has been cleared, and resets the deparment's power.\n    /// @param departmentID the department to be cleared\n    /// @param cleared the power consumption to be cleared\n    function clearDepartment(bytes32 departmentID, uint80 cleared) public auth { // an accountant can call that too\n        bytes32 department = departments[departmentID];\n        department = department.increaseClearedPower(cleared);\n        department = department.setPower(0);\n\n        departments[departmentID] = department;\n\n        emit Cleared(departmentID, cleared);\n    }\n}\n",
  "sourcePath": "/home/opsec/Diploma/deliverable/5-meteraccounting-implementation/smartcontracts/contracts/core/AccountingDB.sol",
  "compiler": {
    "name": "solc",
    "version": "0.4.21+commit.dfe3193c.Emscripten.clang"
  },
  "schemaVersion": "2.0.0",
  "updatedAt": "2018-05-15T08:47:16.248Z"
}