{
  "contractName": "DSRoles",
  "abi": [
    {
      "constant": false,
      "inputs": [
        {
          "name": "owner_",
          "type": "address"
        }
      ],
      "name": "setOwner",
      "outputs": [],
      "payable": false,
      "stateMutability": "nonpayable",
      "type": "function"
    },
    {
      "constant": false,
      "inputs": [
        {
          "name": "authority_",
          "type": "address"
        }
      ],
      "name": "setAuthority",
      "outputs": [],
      "payable": false,
      "stateMutability": "nonpayable",
      "type": "function"
    },
    {
      "constant": true,
      "inputs": [],
      "name": "owner",
      "outputs": [
        {
          "name": "",
          "type": "address"
        }
      ],
      "payable": false,
      "stateMutability": "view",
      "type": "function"
    },
    {
      "constant": true,
      "inputs": [],
      "name": "authority",
      "outputs": [
        {
          "name": "",
          "type": "address"
        }
      ],
      "payable": false,
      "stateMutability": "view",
      "type": "function"
    },
    {
      "constant": true,
      "inputs": [
        {
          "name": "src",
          "type": "address"
        },
        {
          "name": "sig",
          "type": "bytes4"
        }
      ],
      "name": "isAuthorized",
      "outputs": [
        {
          "name": "",
          "type": "bool"
        }
      ],
      "payable": false,
      "stateMutability": "view",
      "type": "function"
    },
    {
      "anonymous": false,
      "inputs": [
        {
          "indexed": true,
          "name": "authority",
          "type": "address"
        }
      ],
      "name": "LogSetAuthority",
      "type": "event"
    },
    {
      "anonymous": false,
      "inputs": [
        {
          "indexed": true,
          "name": "owner",
          "type": "address"
        }
      ],
      "name": "LogSetOwner",
      "type": "event"
    },
    {
      "constant": true,
      "inputs": [
        {
          "name": "who",
          "type": "address"
        }
      ],
      "name": "getUserRoles",
      "outputs": [
        {
          "name": "",
          "type": "bytes32"
        }
      ],
      "payable": false,
      "stateMutability": "view",
      "type": "function"
    },
    {
      "constant": true,
      "inputs": [
        {
          "name": "code",
          "type": "address"
        },
        {
          "name": "sig",
          "type": "bytes4"
        }
      ],
      "name": "getCapabilityRoles",
      "outputs": [
        {
          "name": "",
          "type": "bytes32"
        }
      ],
      "payable": false,
      "stateMutability": "view",
      "type": "function"
    },
    {
      "constant": true,
      "inputs": [
        {
          "name": "who",
          "type": "address"
        }
      ],
      "name": "isUserRoot",
      "outputs": [
        {
          "name": "",
          "type": "bool"
        }
      ],
      "payable": false,
      "stateMutability": "view",
      "type": "function"
    },
    {
      "constant": true,
      "inputs": [
        {
          "name": "code",
          "type": "address"
        },
        {
          "name": "sig",
          "type": "bytes4"
        }
      ],
      "name": "isCapabilityPublic",
      "outputs": [
        {
          "name": "",
          "type": "bool"
        }
      ],
      "payable": false,
      "stateMutability": "view",
      "type": "function"
    },
    {
      "constant": true,
      "inputs": [
        {
          "name": "who",
          "type": "address"
        },
        {
          "name": "role",
          "type": "uint8"
        }
      ],
      "name": "hasUserRole",
      "outputs": [
        {
          "name": "",
          "type": "bool"
        }
      ],
      "payable": false,
      "stateMutability": "view",
      "type": "function"
    },
    {
      "constant": true,
      "inputs": [
        {
          "name": "caller",
          "type": "address"
        },
        {
          "name": "code",
          "type": "address"
        },
        {
          "name": "sig",
          "type": "bytes4"
        }
      ],
      "name": "canCall",
      "outputs": [
        {
          "name": "",
          "type": "bool"
        }
      ],
      "payable": false,
      "stateMutability": "view",
      "type": "function"
    },
    {
      "constant": false,
      "inputs": [
        {
          "name": "who",
          "type": "address"
        },
        {
          "name": "enabled",
          "type": "bool"
        }
      ],
      "name": "setRootUser",
      "outputs": [],
      "payable": false,
      "stateMutability": "nonpayable",
      "type": "function"
    },
    {
      "constant": false,
      "inputs": [
        {
          "name": "who",
          "type": "address"
        },
        {
          "name": "role",
          "type": "uint8"
        },
        {
          "name": "enabled",
          "type": "bool"
        }
      ],
      "name": "setUserRole",
      "outputs": [],
      "payable": false,
      "stateMutability": "nonpayable",
      "type": "function"
    },
    {
      "constant": false,
      "inputs": [
        {
          "name": "code",
          "type": "address"
        },
        {
          "name": "sig",
          "type": "bytes4"
        },
        {
          "name": "enabled",
          "type": "bool"
        }
      ],
      "name": "setPublicCapability",
      "outputs": [],
      "payable": false,
      "stateMutability": "nonpayable",
      "type": "function"
    },
    {
      "constant": false,
      "inputs": [
        {
          "name": "role",
          "type": "uint8"
        },
        {
          "name": "code",
          "type": "address"
        },
        {
          "name": "sigs",
          "type": "bytes4[]"
        },
        {
          "name": "enabled",
          "type": "bool"
        }
      ],
      "name": "setRoleCapabilityBatch",
      "outputs": [],
      "payable": false,
      "stateMutability": "nonpayable",
      "type": "function"
    },
    {
      "constant": false,
      "inputs": [
        {
          "name": "role",
          "type": "uint8"
        },
        {
          "name": "code",
          "type": "address"
        },
        {
          "name": "sig",
          "type": "bytes4"
        },
        {
          "name": "enabled",
          "type": "bool"
        }
      ],
      "name": "setRoleCapability",
      "outputs": [],
      "payable": false,
      "stateMutability": "nonpayable",
      "type": "function"
    }
  ],
  "bytecode": "0x6060604090815260018054600160a060020a03191633600160a060020a0316908117909155907fce241d7ca1f669fee44b6fc00b8eba2df3bb514eed0f6f668f8f89096e81ed94905160405180910390a26109998061005f6000396000f3006060604052600436106100e55763ffffffff7c010000000000000000000000000000000000000000000000000000000060003504166306a36aee81146100ea57806313af40351461011b57806327538e901461013c5780632f47571f1461016857806367aff484146101a85780637a9e5e4b146101d25780637d40583d146101f15780638da5cb5b14610228578063a078f73714610257578063b70096131461027c578063bf7e214f146102ae578063c6b0263e146102c1578063d381ba7c146102f2578063d895885e14610316578063d9972b9614610380578063fbf80773146103ac575b600080fd5b34156100f557600080fd5b610109600160a060020a03600435166103cb565b60405190815260200160405180910390f35b341561012657600080fd5b61013a600160a060020a03600435166103e6565b005b341561014757600080fd5b610109600160a060020a0360043516600160e060020a031960243516610465565b341561017357600080fd5b610194600160a060020a0360043516600160e060020a03196024351661049a565b604051901515815260200160405180910390f35b34156101b357600080fd5b61013a600160a060020a036004351660ff6024351660443515156104d1565b34156101dd57600080fd5b61013a600160a060020a036004351661056d565b34156101fc57600080fd5b61013a60ff60043516600160a060020a0360243516600160e060020a03196044351660643515156105ec565b341561023357600080fd5b61023b6106c8565b604051600160a060020a03909116815260200160405180910390f35b341561026257600080fd5b610194600160a060020a036004351660ff602435166106d7565b341561028757600080fd5b610194600160a060020a0360043581169060243516600160e060020a0319604435166106fb565b34156102b957600080fd5b61023b61074f565b34156102cc57600080fd5b61013a600160a060020a0360043516600160e060020a031960243516604435151561075e565b34156102fd57600080fd5b61013a600160a060020a036004351660243515156107c0565b341561032157600080fd5b61013a6004803560ff169060248035600160a060020a03169190606490604435908101908301358060208082020160405190810160405280939291908181526020018383602002808284375094965050505091351515915061080c9050565b341561038b57600080fd5b610194600160a060020a0360043516600160e060020a031960243516610849565b34156103b757600080fd5b610194600160a060020a0360043516610948565b600160a060020a031660009081526003602052604090205490565b6103fc33600035600160e060020a031916610849565b151561040757600080fd5b6001805473ffffffffffffffffffffffffffffffffffffffff1916600160a060020a038381169190911791829055167fce241d7ca1f669fee44b6fc00b8eba2df3bb514eed0f6f668f8f89096e81ed9460405160405180910390a250565b600160a060020a0382166000908152600460209081526040808320600160e060020a0319851684529091529020545b92915050565b600160a060020a0382166000908152600560209081526040808320600160e060020a03198516845290915290205460ff1692915050565b6000806104ea33600035600160e060020a031916610849565b15156104f557600080fd5b5050600160a060020a03831660009081526003602052604090205460ff831660020a821561053f57600160a060020a03851660009081526003602052604090208282179055610566565b61054881610966565b600160a060020a038616600090815260036020526040902090831690555b5050505050565b61058333600035600160e060020a031916610849565b151561058e57600080fd5b6000805473ffffffffffffffffffffffffffffffffffffffff1916600160a060020a038381169190911791829055167f1abebea81bfa2637f28358c371278fb15ede7ea8dd28d2e03b112ff6d936ada460405160405180910390a250565b60008061060533600035600160e060020a031916610849565b151561061057600080fd5b5050600160a060020a0383166000908152600460209081526040808320600160e060020a03198616845290915290205460ff851660020a821561068457600160a060020a0385166000908152600460209081526040808320600160e060020a031988168452909152902082821790556106c0565b61068d81610966565b600160a060020a0386166000908152600460209081526040808320600160e060020a031989168452909152902090831690555b505050505050565b600154600160a060020a031681565b60008060006106e5856103cb565b60ff9490941660020a9093161515949350505050565b600080600061070986610948565b806107195750610719858561049a565b156107275760019250610746565b610730866103cb565b915061073c8585610465565b8281161515935090505b50509392505050565b600054600160a060020a031681565b61077433600035600160e060020a031916610849565b151561077f57600080fd5b600160a060020a039092166000908152600560209081526040808320600160e060020a0319909416835292905220805491151560ff19909216919091179055565b6107d633600035600160e060020a031916610849565b15156107e157600080fd5b600160a060020a03919091166000908152600260205260409020805460ff1916911515919091179055565b60008083519150600090505b818110156106c057610841868686848151811061083157fe5b90602001906020020151866105ec565b600101610818565b600030600160a060020a031683600160a060020a0316141561086d57506001610494565b600154600160a060020a038481169116141561088b57506001610494565b600054600160a060020a031615156108a557506000610494565b600054600160a060020a031663b70096138430856040517c010000000000000000000000000000000000000000000000000000000063ffffffff8616028152600160a060020a039384166004820152919092166024820152600160e060020a03199091166044820152606401602060405180830381600087803b151561092a57600080fd5b5af1151561093757600080fd5b505050604051805190509050610494565b600160a060020a031660009081526002602052604090205460ff1690565b60001918905600a165627a7a723058200cffe8663de8e2c2788dea040ca9b99ba560fa33b8fc76c6acf0965a85c57fc40029",
  "source": "// roles.sol - roled based authentication\n\n// Copyright (C) 2017  DappHub, LLC\n\n// This program is free software: you can redistribute it and/or modify\n// it under the terms of the GNU General Public License as published by\n// the Free Software Foundation, either version 3 of the License, or\n// (at your option) any later version.\n\n// This program is distributed in the hope that it will be useful,\n// but WITHOUT ANY WARRANTY; without even the implied warranty of\n// MERCHANTABILITY or FITNESS FOR A PARTICULAR PURPOSE.  See the\n// GNU General Public License for more details.\n\n// You should have received a copy of the GNU General Public License\n// along with this program.  If not, see <http://www.gnu.org/licenses/>.\n\npragma solidity ^0.4.21;\n\nimport \"./DSAuth.sol\";\n\n\ncontract DSRoles is DSAuth, DSAuthority\n{\n    mapping(address=>bool) _root_users;\n    mapping(address=>bytes32) _user_roles;\n    mapping(address=>mapping(bytes4=>bytes32)) _capability_roles;\n    mapping(address=>mapping(bytes4=>bool)) _public_capabilities;\n\n    function getUserRoles(address who)\n        public\n        view\n        returns (bytes32)\n    {\n        return _user_roles[who];\n    }\n\n    function getCapabilityRoles(address code, bytes4 sig)\n        public\n        view\n        returns (bytes32)\n    {\n        return _capability_roles[code][sig];\n    }\n\n    function isUserRoot(address who)\n        public\n        view\n        returns (bool)\n    {\n        return _root_users[who];\n    }\n\n    function isCapabilityPublic(address code, bytes4 sig)\n        public\n        view\n        returns (bool)\n    {\n        return _public_capabilities[code][sig];\n    }\n\n    function hasUserRole(address who, uint8 role)\n        public\n        view\n        returns (bool)\n    {\n        bytes32 roles = getUserRoles(who);\n        bytes32 shifted = bytes32(uint256(uint256(2) ** uint256(role)));\n        return bytes32(0) != roles & shifted;\n    }\n\n    function canCall(address caller, address code, bytes4 sig)\n        public\n        view\n        returns (bool)\n    {\n        if( isUserRoot(caller) || isCapabilityPublic(code, sig) ) {\n            return true;\n        } else {\n            bytes32 has_roles = getUserRoles(caller);\n            bytes32 needs_one_of = getCapabilityRoles(code, sig);\n            return bytes32(0) != has_roles & needs_one_of;\n        }\n    }\n\n    function BITNOT(bytes32 input) internal pure returns (bytes32 output) {\n        return (input ^ bytes32(uint(-1)));\n    }\n\n    function setRootUser(address who, bool enabled)\n        public\n        auth\n    {\n        _root_users[who] = enabled;\n    }\n\n    function setUserRole(address who, uint8 role, bool enabled)\n        public\n        auth\n    {\n        bytes32 last_roles = _user_roles[who];\n        bytes32 shifted = bytes32(uint256(uint256(2) ** uint256(role)));\n        if( enabled ) {\n            _user_roles[who] = last_roles | shifted;\n        } else {\n            _user_roles[who] = last_roles & BITNOT(shifted);\n        }\n    }\n\n    function setPublicCapability(address code, bytes4 sig, bool enabled)\n        public\n        auth\n    {\n        _public_capabilities[code][sig] = enabled;\n    }\n\n    function setRoleCapabilityBatch(uint8 role, address code, bytes4[] sigs, bool enabled)\n        public\n    {\n        uint length = sigs.length;\n        for (uint i = 0; i < length; i++) {\n            setRoleCapability(role, code, sigs[i], enabled);\n        }\n    }\n\n    function setRoleCapability(uint8 role, address code, bytes4 sig, bool enabled)\n        public\n        auth\n    {\n        bytes32 last_roles = _capability_roles[code][sig];\n        bytes32 shifted = bytes32(uint256(uint256(2) ** uint256(role)));\n        if( enabled ) {\n            _capability_roles[code][sig] = last_roles | shifted;\n        } else {\n            _capability_roles[code][sig] = last_roles & BITNOT(shifted);\n        }\n\n    }\n\n}\n\n",
  "sourcePath": "/home/opsec/Diploma/deliverable/5-meteraccounting-implementation/smartcontracts/contracts/libs/auth/DSRoles.sol",
  "compiler": {
    "name": "solc",
    "version": "0.4.21+commit.dfe3193c.Emscripten.clang"
  },
  "schemaVersion": "2.0.0",
  "updatedAt": "2018-05-15T08:47:16.262Z"
}