{
  "contractName": "MeterDB",
  "abi": [
    {
      "constant": false,
      "inputs": [
        {
          "name": "owner_",
          "type": "address"
        }
      ],
      "name": "setOwner",
      "outputs": [],
      "payable": false,
      "stateMutability": "nonpayable",
      "type": "function"
    },
    {
      "constant": false,
      "inputs": [
        {
          "name": "authority_",
          "type": "address"
        }
      ],
      "name": "setAuthority",
      "outputs": [],
      "payable": false,
      "stateMutability": "nonpayable",
      "type": "function"
    },
    {
      "constant": true,
      "inputs": [],
      "name": "owner",
      "outputs": [
        {
          "name": "",
          "type": "address"
        }
      ],
      "payable": false,
      "stateMutability": "view",
      "type": "function"
    },
    {
      "constant": true,
      "inputs": [
        {
          "name": "",
          "type": "address"
        }
      ],
      "name": "meters",
      "outputs": [
        {
          "name": "",
          "type": "bytes32"
        }
      ],
      "payable": false,
      "stateMutability": "view",
      "type": "function"
    },
    {
      "constant": true,
      "inputs": [
        {
          "name": "",
          "type": "bytes8"
        }
      ],
      "name": "meterAddressById",
      "outputs": [
        {
          "name": "",
          "type": "address"
        }
      ],
      "payable": false,
      "stateMutability": "view",
      "type": "function"
    },
    {
      "constant": true,
      "inputs": [],
      "name": "authority",
      "outputs": [
        {
          "name": "",
          "type": "address"
        }
      ],
      "payable": false,
      "stateMutability": "view",
      "type": "function"
    },
    {
      "constant": true,
      "inputs": [
        {
          "name": "",
          "type": "uint256"
        }
      ],
      "name": "meterAddresses",
      "outputs": [
        {
          "name": "",
          "type": "address"
        }
      ],
      "payable": false,
      "stateMutability": "view",
      "type": "function"
    },
    {
      "constant": true,
      "inputs": [
        {
          "name": "src",
          "type": "address"
        },
        {
          "name": "sig",
          "type": "bytes4"
        }
      ],
      "name": "isAuthorized",
      "outputs": [
        {
          "name": "",
          "type": "bool"
        }
      ],
      "payable": false,
      "stateMutability": "view",
      "type": "function"
    },
    {
      "anonymous": false,
      "inputs": [
        {
          "indexed": true,
          "name": "meterAddress",
          "type": "address"
        },
        {
          "indexed": true,
          "name": "meterId",
          "type": "bytes8"
        }
      ],
      "name": "Activated",
      "type": "event"
    },
    {
      "anonymous": false,
      "inputs": [
        {
          "indexed": true,
          "name": "meterAddress",
          "type": "address"
        }
      ],
      "name": "Deactivated",
      "type": "event"
    },
    {
      "anonymous": false,
      "inputs": [
        {
          "indexed": true,
          "name": "meterAddress",
          "type": "address"
        },
        {
          "indexed": true,
          "name": "meterId",
          "type": "bytes8"
        },
        {
          "indexed": false,
          "name": "power",
          "type": "uint48"
        },
        {
          "indexed": false,
          "name": "timestamp",
          "type": "uint32"
        }
      ],
      "name": "Pinged",
      "type": "event"
    },
    {
      "anonymous": false,
      "inputs": [
        {
          "indexed": true,
          "name": "authority",
          "type": "address"
        }
      ],
      "name": "LogSetAuthority",
      "type": "event"
    },
    {
      "anonymous": false,
      "inputs": [
        {
          "indexed": true,
          "name": "owner",
          "type": "address"
        }
      ],
      "name": "LogSetOwner",
      "type": "event"
    },
    {
      "constant": true,
      "inputs": [
        {
          "name": "_address",
          "type": "address"
        }
      ],
      "name": "isActive",
      "outputs": [
        {
          "name": "active",
          "type": "bool"
        }
      ],
      "payable": false,
      "stateMutability": "view",
      "type": "function"
    },
    {
      "constant": false,
      "inputs": [
        {
          "name": "_addresses",
          "type": "address[]"
        },
        {
          "name": "_ids",
          "type": "bytes8[]"
        }
      ],
      "name": "activateMeterBatch",
      "outputs": [],
      "payable": false,
      "stateMutability": "nonpayable",
      "type": "function"
    },
    {
      "constant": false,
      "inputs": [
        {
          "name": "_address",
          "type": "address"
        },
        {
          "name": "_id",
          "type": "bytes8"
        }
      ],
      "name": "activateMeter",
      "outputs": [],
      "payable": false,
      "stateMutability": "nonpayable",
      "type": "function"
    },
    {
      "constant": false,
      "inputs": [
        {
          "name": "_address",
          "type": "address"
        }
      ],
      "name": "deactivateMeter",
      "outputs": [],
      "payable": false,
      "stateMutability": "nonpayable",
      "type": "function"
    },
    {
      "constant": true,
      "inputs": [
        {
          "name": "_address",
          "type": "address"
        }
      ],
      "name": "getCurrentMeterData",
      "outputs": [
        {
          "name": "",
          "type": "bytes8"
        },
        {
          "name": "",
          "type": "uint48"
        },
        {
          "name": "",
          "type": "uint32"
        }
      ],
      "payable": false,
      "stateMutability": "view",
      "type": "function"
    },
    {
      "constant": true,
      "inputs": [
        {
          "name": "_id",
          "type": "bytes8"
        }
      ],
      "name": "getCurrentMeterDataById",
      "outputs": [
        {
          "name": "",
          "type": "bytes8"
        },
        {
          "name": "",
          "type": "uint48"
        },
        {
          "name": "",
          "type": "uint32"
        }
      ],
      "payable": false,
      "stateMutability": "view",
      "type": "function"
    },
    {
      "constant": false,
      "inputs": [
        {
          "name": "power",
          "type": "uint48"
        },
        {
          "name": "timestamp",
          "type": "uint32"
        }
      ],
      "name": "ping",
      "outputs": [],
      "payable": false,
      "stateMutability": "nonpayable",
      "type": "function"
    }
  ],
  "bytecode": "0x6060604090815260018054600160a060020a03191633600160a060020a0316908117909155907fce241d7ca1f669fee44b6fc00b8eba2df3bb514eed0f6f668f8f89096e81ed94905160405180910390a2610bd38061005f6000396000f3006060604052600436106100da5763ffffffff7c01000000000000000000000000000000000000000000000000000000006000350416630da7058a81146100df57806313af40351461013a57806327f208a51461015b5780637a9e5e4b1461017b5780638d784cca1461019a5780638da5cb5b146102295780639f8a13d714610258578063a55d0aaa1461028b578063b2766b5c146102bc578063bf7e214f146102dc578063bf981484146102ef578063d2fdb6fa14610305578063d316dc351461032c578063d9972b9614610358578063f6042b3514610384575b600080fd5b34156100ea57600080fd5b6100fe600160a060020a03600435166103a3565b604051600160c060020a0319909316835265ffffffffffff909116602083015263ffffffff166040808301919091526060909101905180910390f35b341561014557600080fd5b610159600160a060020a03600435166103e9565b005b341561016657600080fd5b6100fe600160c060020a031960043516610468565b341561018657600080fd5b610159600160a060020a03600435166104a5565b34156101a557600080fd5b61015960046024813581810190830135806020818102016040519081016040528093929190818152602001838360200280828437820191505050505050919080359060200190820180359060200190808060200260200160405190810160405280939291908181526020018383602002808284375094965061052495505050505050565b341561023457600080fd5b61023c610586565b604051600160a060020a03909116815260200160405180910390f35b341561026357600080fd5b610277600160a060020a0360043516610595565b604051901515815260200160405180910390f35b341561029657600080fd5b6102aa600160a060020a03600435166105bd565b60405190815260200160405180910390f35b34156102c757600080fd5b61023c600160c060020a0319600435166105cf565b34156102e757600080fd5b61023c6105ea565b34156102fa57600080fd5b61023c6004356105f9565b341561031057600080fd5b61015965ffffffffffff6004351663ffffffff60243516610621565b341561033757600080fd5b610159600160a060020a0360043516600160c060020a0319602435166106f5565b341561036357600080fd5b610277600160a060020a0360043516600160e060020a031960243516610804565b341561038f57600080fd5b610159600160a060020a0360043516610902565b600160a060020a038116600090815260026020526040812054819081906103c981610982565b6103d2826109b9565b6103db836109d5565b935093509350509193909250565b6103ff33600035600160e060020a031916610804565b151561040a57600080fd5b6001805473ffffffffffffffffffffffffffffffffffffffff1916600160a060020a038381169190911791829055167fce241d7ca1f669fee44b6fc00b8eba2df3bb514eed0f6f668f8f89096e81ed9460405160405180910390a250565b600160c060020a031981166000908152600360205260408120548190819061049890600160a060020a03166103a3565b9250925092509193909250565b6104bb33600035600160e060020a031916610804565b15156104c657600080fd5b6000805473ffffffffffffffffffffffffffffffffffffffff1916600160a060020a038381169190911791829055167f1abebea81bfa2637f28358c371278fb15ede7ea8dd28d2e03b112ff6d936ada460405160405180910390a250565b600080835191508251821461053857600080fd5b5060005b818110156105805761057884828151811061055357fe5b9060200190602002015184838151811061056957fe5b906020019060200201516106f5565b60010161053c565b50505050565b600154600160a060020a031681565b600160a060020a0381166000908152600260205260408120546105b7906109f5565b92915050565b60026020526000908152604090205481565b600360205260009081526040902054600160a060020a031681565b600054600160a060020a031681565b600480548290811061060757fe5b600091825260209091200154600160a060020a0316905081565b61062a33610595565b151561063557600080fd5b600160a060020a033316600090815260026020526040902054610670908290610664908563ffffffff610a0c16565b9063ffffffff610a5116565b600160a060020a033316600090815260026020526040902081905561069490610982565b600160c060020a031916600160a060020a0333167ff64dae5bd0a265818d0355dd1d22633c5433add60d4fa7c384fb8757255290d1848460405165ffffffffffff909216825263ffffffff1660208201526040908101905180910390a35050565b600061070d33600035600160e060020a031916610804565b151561071857600080fd5b61072183610595565b1561072b57600080fd5b61073481610a90565b9050610746818363ffffffff610aa016565b600160a060020a03841660009081526002602052604090208190556004805491925090600181016107778382610b5d565b5060009182526020808320919091018054600160a060020a03871673ffffffffffffffffffffffffffffffffffffffff199182168117909255600160c060020a03198616808552600390935260409384902080549091168217905590917faf478f6cce2165e46b9b802191847389ab5d61596d3e63490bfc040622b50151905160405180910390a3505050565b600030600160a060020a031683600160a060020a03161415610828575060016105b7565b600154600160a060020a0384811691161415610846575060016105b7565b600054600160a060020a03161515610860575060006105b7565b600054600160a060020a031663b70096138430856040517c010000000000000000000000000000000000000000000000000000000063ffffffff8616028152600160a060020a039384166004820152919092166024820152600160e060020a03199091166044820152606401602060405180830381600087803b15156108e557600080fd5b5af115156108f257600080fd5b5050506040518051949350505050565b61091833600035600160e060020a031916610804565b151561092357600080fd5b61092c81610595565b151561093757600080fd5b600160a060020a038116600081815260026020526040808220919091557f749cb6b4c510bc468cf6b9c2086d6f0a54d6b18e25d37bf3200e68eab0880c00905160405180910390a250565b60006109988267ffffffffffffffff6002610ad9565b78010000000000000000000000000000000000000000000000000292915050565b60006105b78265ffffffffffff68020000000000000000610ad9565b60006105b78263ffffffff6e020000000000000000000000000000610ad9565b6000610a0382600180610ad9565b60011492915050565b600080610a18846109b9565b9050610a248482610af2565b9350610a498465ffffffffffff680200000000000000008665ffffffffffff16610b1d565b949350505050565b600080610a5d846109d5565b9050610a698482610b2c565b9350610a498463ffffffff6e0200000000000000000000000000008663ffffffff16610b1d565b60006105b7826001806001610b1d565b6000610ad28367ffffffffffffffff600278010000000000000000000000000000000000000000000000008604610b1d565b9392505050565b60008184811515610ae657fe5b04831690509392505050565b6000610ad28365ffffffffffff72020000000000000000000000000000000000008565ffffffffffff165b82168102910219919091161790565b6000610ad28363ffffffff78020000000000000000000000000000000000000000000000008563ffffffff16610b1d565b815481835581811511610b8157600083815260209020610b81918101908301610b86565b505050565b610ba491905b80821115610ba05760008155600101610b8c565b5090565b905600a165627a7a7230582034abed28be02910d94c00de58d55cd1170d62291bc49b3607dd40f34eb82d4fc0029",
  "source": "pragma solidity ^0.4.21;\n\n\nimport '../libs/Meter.sol';\nimport '../libs/auth/DSAuth.sol';\n\n/**\n * @title MeterDB\n * @dev This contract stores the energy values for all meters\n */\n\ncontract MeterDB is DSAuth {\n    using Meter for bytes32;\n\n    /* Events */\n    event Activated(address indexed meterAddress, bytes8 indexed meterId);\n    event Deactivated(address indexed meterAddress);\n    event Pinged(address indexed meterAddress, bytes8 indexed meterId, uint48 power, uint32 timestamp);\n\n    /* Storage */\n    mapping (address => bytes32) public meters;\n    mapping (bytes8 => address) public meterAddressById;\n    address[] public meterAddresses;\n\n    /* Modifiers */\n    modifier onlyMeter() {\n        require(isActive(msg.sender));\n        _;\n    }\n\n    /// @dev Checks if an address is registered as a meter\n    /// @param _address the address to check\n    /// @return active True if a meter is activated by an operator\n    function isActive(address _address) public view returns (bool active) {\n        active = meters[_address].isActive();\n        return active;\n    }\n\n    /* Functions */\n\n    /// @dev allows an authorized operator to enable multiple meters\n    /// @param _addresses array of addresses of the meters to be enabled\n    /// @param _ids array of identifier of the meters to be enabled\n    function activateMeterBatch(address[] _addresses, bytes8[] _ids) public {\n        uint length = _addresses.length;\n        require(length == _ids.length);\n\n        for (uint i=0; i< length; i++) {\n            activateMeter(_addresses[i], _ids[i]);\n        }\n    }\n\n    /// @dev allows an authorized operator to enable a meter\n    /// @param _address The address of the meter to be enabled\n    /// @param _id The identifier of the meter to be enabled (ELTXX, VMXX, KMZXX in our case)\n    function activateMeter(address _address, bytes8 _id) public auth {\n       require(!isActive(_address));\n       bytes32 meter = meter.activateMeter();\n       meter = meter.setId(_id);\n\n       meters[_address] = meter;\n       meterAddresses.push(_address);\n       meterAddressById[_id] = _address;\n\n       emit Activated(_address, _id);\n    }\n\n    /// @dev allows an authorized operator to disable a meter\n    /// @param _address The address of the meter to be disabled\n    function deactivateMeter(address _address) external auth {\n        require(isActive(_address));\n        delete meters[_address];\n\n        emit Deactivated(_address);\n    }\n\n    /// @dev Gets the consumption of a meter given an address\n    /// @param _address The address of the meter to inspect\n    /// @return id The meter id\n    /// @return power The meter power consumption\n    /// @return timestamp The timestamp at which the power reading was stored\n    function getCurrentMeterData(address _address) public view returns (bytes8, uint48, uint32) {\n        bytes32 meter = meters[_address];\n        return (\n            meter.getId(),\n            meter.getCurrentPower(),\n            meter.getCurrentTimestamp()\n       );\n    }\n\n    /// @dev Gets the consumption of a meter given an id\n    /// @param _id The id of the meter to inspect\n    /// @return id The meter id\n    /// @return power The meter power consumption\n    /// @return timestamp The timestamp at which the power reading was stored\n    function getCurrentMeterDataById(bytes8 _id) external view returns (bytes8, uint48, uint32) {\n        return getCurrentMeterData(meterAddressById[_id]);\n    }\n\n    /// @dev Pings the consumption of a meter at a given timestamp\n    /// @param power The power consumption **in kWh** -- subject to change, depends on client implementation\n    /// @param timestamp The timestamp in **seconds**\n    function ping(uint48 power, uint32 timestamp) external onlyMeter {\n        meters[msg.sender] = meters[msg.sender].setPower(power).setTimestamp(timestamp);\n        emit Pinged(msg.sender, meters[msg.sender].getId(), power, timestamp);\n    }\n\n}\n",
  "sourcePath": "/home/opsec/Diploma/deliverable/5-meteraccounting-implementation/smartcontracts/contracts/core/MeterDB.sol",
  "compiler": {
    "name": "solc",
    "version": "0.4.21+commit.dfe3193c.Emscripten.clang"
  },
  "schemaVersion": "2.0.0",
  "updatedAt": "2018-05-15T08:47:16.240Z"
}