{
  "contractName": "Registry",
  "abi": [
    {
      "constant": false,
      "inputs": [
        {
          "name": "owner_",
          "type": "address"
        }
      ],
      "name": "setOwner",
      "outputs": [],
      "payable": false,
      "stateMutability": "nonpayable",
      "type": "function"
    },
    {
      "constant": false,
      "inputs": [
        {
          "name": "authority_",
          "type": "address"
        }
      ],
      "name": "setAuthority",
      "outputs": [],
      "payable": false,
      "stateMutability": "nonpayable",
      "type": "function"
    },
    {
      "constant": true,
      "inputs": [
        {
          "name": "",
          "type": "address"
        }
      ],
      "name": "addressToID",
      "outputs": [
        {
          "name": "",
          "type": "bytes32"
        }
      ],
      "payable": false,
      "stateMutability": "view",
      "type": "function"
    },
    {
      "constant": true,
      "inputs": [],
      "name": "owner",
      "outputs": [
        {
          "name": "",
          "type": "address"
        }
      ],
      "payable": false,
      "stateMutability": "view",
      "type": "function"
    },
    {
      "constant": true,
      "inputs": [],
      "name": "authority",
      "outputs": [
        {
          "name": "",
          "type": "address"
        }
      ],
      "payable": false,
      "stateMutability": "view",
      "type": "function"
    },
    {
      "constant": true,
      "inputs": [
        {
          "name": "",
          "type": "bytes32"
        }
      ],
      "name": "idToAddress",
      "outputs": [
        {
          "name": "",
          "type": "address"
        }
      ],
      "payable": false,
      "stateMutability": "view",
      "type": "function"
    },
    {
      "constant": true,
      "inputs": [
        {
          "name": "src",
          "type": "address"
        },
        {
          "name": "sig",
          "type": "bytes4"
        }
      ],
      "name": "isAuthorized",
      "outputs": [
        {
          "name": "",
          "type": "bool"
        }
      ],
      "payable": false,
      "stateMutability": "view",
      "type": "function"
    },
    {
      "anonymous": false,
      "inputs": [
        {
          "indexed": true,
          "name": "contractAddress",
          "type": "address"
        },
        {
          "indexed": true,
          "name": "contractId",
          "type": "bytes32"
        }
      ],
      "name": "Enabled",
      "type": "event"
    },
    {
      "anonymous": false,
      "inputs": [
        {
          "indexed": true,
          "name": "contractAddress",
          "type": "address"
        },
        {
          "indexed": true,
          "name": "contractId",
          "type": "bytes32"
        }
      ],
      "name": "Disabled",
      "type": "event"
    },
    {
      "anonymous": false,
      "inputs": [
        {
          "indexed": true,
          "name": "authority",
          "type": "address"
        }
      ],
      "name": "LogSetAuthority",
      "type": "event"
    },
    {
      "anonymous": false,
      "inputs": [
        {
          "indexed": true,
          "name": "owner",
          "type": "address"
        }
      ],
      "name": "LogSetOwner",
      "type": "event"
    },
    {
      "constant": false,
      "inputs": [
        {
          "name": "_address",
          "type": "address"
        },
        {
          "name": "_id",
          "type": "bytes32"
        }
      ],
      "name": "enable",
      "outputs": [],
      "payable": false,
      "stateMutability": "nonpayable",
      "type": "function"
    },
    {
      "constant": false,
      "inputs": [
        {
          "name": "_addresses",
          "type": "address[]"
        },
        {
          "name": "_ids",
          "type": "bytes32[]"
        }
      ],
      "name": "enableBatch",
      "outputs": [],
      "payable": false,
      "stateMutability": "nonpayable",
      "type": "function"
    },
    {
      "constant": false,
      "inputs": [
        {
          "name": "_address",
          "type": "address"
        }
      ],
      "name": "disable",
      "outputs": [],
      "payable": false,
      "stateMutability": "nonpayable",
      "type": "function"
    },
    {
      "constant": true,
      "inputs": [
        {
          "name": "_address",
          "type": "address"
        }
      ],
      "name": "resolve",
      "outputs": [
        {
          "name": "",
          "type": "bytes32"
        }
      ],
      "payable": false,
      "stateMutability": "view",
      "type": "function"
    },
    {
      "constant": true,
      "inputs": [
        {
          "name": "_id",
          "type": "bytes32"
        }
      ],
      "name": "resolveName",
      "outputs": [
        {
          "name": "",
          "type": "address"
        }
      ],
      "payable": false,
      "stateMutability": "view",
      "type": "function"
    }
  ],
  "bytecode": "0x6060604090815260018054600160a060020a03191633600160a060020a0316908117909155907fce241d7ca1f669fee44b6fc00b8eba2df3bb514eed0f6f668f8f89096e81ed94905160405180910390a26106f68061005f6000396000f3006060604052600436106100b95763ffffffff7c010000000000000000000000000000000000000000000000000000000060003504166313af403581146100be57806355ea6c47146100df5780637a9e5e4b146101105780638694142b1461012f5780638983d96c1461014e5780638da5cb5b14610170578063bf7e214f1461019f578063cee82d09146101b2578063d9972b96146101c8578063e6c09edf14610208578063ead6505414610227578063f5444a771461023d575b600080fd5b34156100c957600080fd5b6100dd600160a060020a0360043516610267565b005b34156100ea57600080fd5b6100fe600160a060020a03600435166102e6565b60405190815260200160405180910390f35b341561011b57600080fd5b6100dd600160a060020a0360043516610301565b341561013a57600080fd5b6100fe600160a060020a0360043516610380565b341561015957600080fd5b6100dd600160a060020a0360043516602435610392565b341561017b57600080fd5b61018361043f565b604051600160a060020a03909116815260200160405180910390f35b34156101aa57600080fd5b61018361044e565b34156101bd57600080fd5b61018360043561045d565b34156101d357600080fd5b6101f4600160a060020a0360043516600160e060020a031960243516610478565b604051901515815260200160405180910390f35b341561021357600080fd5b6100dd600160a060020a0360043516610578565b341561023257600080fd5b61018360043561062a565b341561024857600080fd5b6100dd6024600480358281019290820135918135918201910135610645565b61027d33600035600160e060020a031916610478565b151561028857600080fd5b6001805473ffffffffffffffffffffffffffffffffffffffff1916600160a060020a038381169190911791829055167fce241d7ca1f669fee44b6fc00b8eba2df3bb514eed0f6f668f8f89096e81ed9460405160405180910390a250565b600160a060020a031660009081526002602052604090205490565b61031733600035600160e060020a031916610478565b151561032257600080fd5b6000805473ffffffffffffffffffffffffffffffffffffffff1916600160a060020a038381169190911791829055167f1abebea81bfa2637f28358c371278fb15ede7ea8dd28d2e03b112ff6d936ada460405160405180910390a250565b60026020526000908152604090205481565b6103a833600035600160e060020a031916610478565b15156103b357600080fd5b6103bc826106ad565b156103c657600080fd5b600160a060020a0382166000818152600260209081526040808320859055848352600390915290819020805473ffffffffffffffffffffffffffffffffffffffff1916831790558291907fd2b99b1bc939efec8a5abcff8bb82fb5399dc15082cfb79a4fe5eeb30d9534e1905160405180910390a35050565b600154600160a060020a031681565b600054600160a060020a031681565b600360205260009081526040902054600160a060020a031681565b600030600160a060020a031683600160a060020a0316141561049c57506001610572565b600154600160a060020a03848116911614156104ba57506001610572565b600054600160a060020a031615156104d457506000610572565b600054600160a060020a031663b70096138430856040517c010000000000000000000000000000000000000000000000000000000063ffffffff8616028152600160a060020a039384166004820152919092166024820152600160e060020a03199091166044820152606401602060405180830381600087803b151561055957600080fd5b5af1151561056657600080fd5b50505060405180519150505b92915050565b600061059033600035600160e060020a031916610478565b151561059b57600080fd5b6105a4826106ad565b15156105af57600080fd5b50600160a060020a0381166000818152600260209081526040808320805490849055808452600390925291829020805473ffffffffffffffffffffffffffffffffffffffff191690559182917fac6e55edf234c85d4bc7b89c997cc4ade326a0492d0db7b158e63495072bd36e905160405180910390a35050565b600090815260036020526040902054600160a060020a031690565b82600082821461065457600080fd5b5060005b818110156106a55761069d86868381811061066f57fe5b90506020020135600160a060020a0316858584818110151561068d57fe5b9050602002013560001916610392565b600101610658565b505050505050565b600160a060020a03166000908152600260205260409020541515905600a165627a7a72305820d2c49e962458978ef5e348410d630ad3f365cde2534ab1a4dae65ff6d34ecfa10029",
  "source": "pragma solidity ^0.4.21;\n\nimport '../libs/auth/DSAuth.sol';\n\n/**\n * @title Registry\n * @dev Allows an operator to register a name for an address. Is used to retrieve a contract's address by its name\n */\n\ncontract Registry is DSAuth {\n\n    /* Events */\n    event Enabled(address indexed contractAddress, bytes32 indexed contractId);\n    event Disabled(address indexed contractAddress, bytes32 indexed contractId);\n\n    /* Storage */\n    mapping (address => bytes32) public addressToID;\n    mapping (bytes32 => address) public idToAddress;\n\n\n    /* Public Functions */\n\n    /// @dev Stores a contract id/address pair\n    /// @param _address The address of the contract to be registered\n    /// @param _id The id of the contract to be registered\n    function enable(address _address, bytes32 _id) public auth {\n        require(!isActive(_address));\n        addressToID[_address] = _id;\n        idToAddress[_id] = _address;\n\n        emit Enabled(_address, _id);\n    }\n\n    /// @dev Stores multiple contract id/address pairs\n    /// @param _addresses Array of addresses of the contracts to be registered\n    /// @param _ids Array of ids of the contracts to be registered\n    function enableBatch(address[] _addresses, bytes32[] _ids) external {\n        uint length = _addresses.length;\n        require(length == _ids.length);\n\n        for (uint i=0; i<length; i++) {\n            enable(_addresses[i], _ids[i]);\n        }\n    }\n\n    /// @dev Deletes a contract from the registry\n    /// @param _address the address of the contract to be deleted\n    function disable(address _address) public auth {\n        require(isActive(_address));\n\n        bytes32 id = addressToID[_address];\n\n        delete addressToID[_address];\n        delete idToAddress[id];\n\n        emit Disabled(_address, id);\n    }\n\n    /// @dev Resolves a contract's name given its address\n    /// @param _address the address of the contract to be retrieved\n    /// @return id the id of the contract\n    function resolve(address _address) external view returns (bytes32) {\n        return addressToID[_address];\n    }\n\n    /// @dev Resolves a contract's address given its id\n    /// @param _id the id of the contract to be retrieved\n    /// @return _address the address of the contract\n    function resolveName(bytes32 _id) external view returns (address) {\n        return idToAddress[_id];\n    }\n\n    /* Private Functions */\n\n    function isActive(address _address) private view returns (bool active) {\n        return addressToID[_address] != 0x0;\n    }\n\n}\n",
  "sourcePath": "/home/opsec/Diploma/deliverable/5-meteraccounting-implementation/smartcontracts/contracts/core/Registry.sol",
  "compiler": {
    "name": "solc",
    "version": "0.4.21+commit.dfe3193c.Emscripten.clang"
  },
  "schemaVersion": "2.0.0",
  "updatedAt": "2018-05-15T08:47:16.254Z"
}